{
  "transactions": [
    {
      "hash": "0x9a836dbb20564f2ff8ec19ce0c648a0b850db527dc79053a4d0c5309a898daa1",
      "transactionType": "CREATE",
      "contractName": "TwosideUpgradeable",
      "contractAddress": "0x700b6a60ce7eaaea56f065753d8dcb9653dbad35",
      "function": null,
      "arguments": null,
      "transaction": {
        "from": "0xa0ee7a142d267c1f36714e4a8f75612f20a79720",
        "gas": "0x316a84",
        "value": "0x0",
        "input": "0x60a080604052346100e6573060805260017f9b779b17422d0df92223018b32b4d1fa46e071723d6817e2486d003becc55f00555f516020612c165f395f51905f525460ff8160401c166100d7576002600160401b03196001600160401b03821601610084575b604051612b2b90816100eb82396080518181816108d701526109a50152f35b6001600160401b0319166001600160401b039081175f516020612c165f395f51905f525581527fc7f505b2f371ae2175ee4913f4499e1f2633a7b5936321eed1cdaeb6115181d290602090a15f80610065565b63f92ee8a960e01b5f5260045ffd5b5f80fdfe6080806040526004361015610012575f80fd5b5f905f3560e01c90816324ec75901461136f57508063282d3fdf14610e545780632a78183f14610e365780632f9b312614610e185780633f4ba83a14610d98578063485cc95514610b6a5780634d853ee514610b415780634f1ef2861461092b57806352d1902d146108c45780635c975abb14610895578063650e71f814610877578063715018a61461080e5780637eee288d146104ef5780638456cb591461047c5780638da5cb5b146104475780638ff29cfe146104085780639214423714610398578063a001ecdd1461037a578063ad3cb1cc1461032d578063bd8aa78014610259578063ca4b208b14610230578063cb4c945614610209578063daf9c210146101ca578063e6fc7744146101ac578063eb32836f1461016b5763f2fde38b1461013c575f80fd5b3461016857602036600319011261016857610165610158611389565b610160611822565b61154f565b80f35b80fd5b5034610168576020366003190112610168576020906001600160a01b03610190611389565b168152600b8252604060018060a01b0391205416604051908152f35b50346101685780600319360112610168576020600754604051908152f35b50346101685760203660031901126101685760209060ff906040906001600160a01b036101f5611389565b168152600a84522054166040519015158152f35b5034610168578060031936011261016857546040516001600160a01b039091168152602090f35b50346101685780600319360112610168576001546040516001600160a01b039091168152602090f35b503461016857610268366113f1565b90338352600560205260ff6040842054161561031e57825b82811061028b578380f35b61029e610299828585611517565b61153b565b6001600160a01b038116801561030f578552600a60209081526040808720805460ff1916600190811790915581516001600160a01b0394909416845242928401929092529092917fe184914670d9e097e90729e2a9159866b30b1203952f0586bedca1d6fcf130a89190a101610280565b63d92e233d60e01b8652600486fd5b63ea8e4eb560e01b8352600483fd5b50346101685780600319360112610168575061037660405161035060408261139f565b60058152640352e302e360dc1b6020820152604051918291602083526020830190611445565b0390f35b50346101685780600319360112610168576020600654604051908152f35b5034610168576103a7366113f1565b906103b0611822565b825b8281106103bd578380f35b6001600160a01b036103d3610299838686611517565b1680156103f9578452600560205260408420805460ff19166001908117909155016103b2565b63d92e233d60e01b8552600485fd5b50346101685760203660031901126101685760209060ff906040906001600160a01b03610433611389565b168152600584522054166040519015158152f35b50346101685780600319360112610168575f516020612a765f395f51905f52546040516001600160a01b039091168152602090f35b5034610168578060031936011261016857610495611822565b61049d61161e565b600160ff195f516020612ab65f395f51905f525416175f516020612ab65f395f51905f52557f62e78cea01bee320cd4e420270b5ea74000d11b0c9f74754ebdbfc544b05a2586020604051338152a180f35b503461016857604036600319011261016857610509611389565b6024356105146115c0565b61051c61161e565b6001600160a01b03821680156107ff5781156107f057808452600a60205260ff604085205416156107e157808452600b60205260408420546001600160a01b031680156107d257604051636eb1769f60e11b8152336004820152306024820152602081604481855afa8015610783578491879161079d575b501061078e576040516370a0823160e01b8152336004820152602081602481855afa8015610783578491879161074a575b501061073b579084916105da84303384611645565b6105e3846116ea565b906105f86105f183876114cc565b9287611743565b803b1561070b57838091602460405180948193630852cd8d60e31b83528a60048401525af1908115610717578491610722575b505060405163a9059cbb60e01b815233600482015260248101919091529160209183916044918391905af19081156107175784916106d8575b50156106c957907f8706eb42648247fb91454d934126d8555aa838aed65e667e9bf7a282b5eaf5b69161069f604051928392429133856114ed565b0390a160017f9b779b17422d0df92223018b32b4d1fa46e071723d6817e2486d003becc55f005580f35b63022e258160e11b8352600483fd5b90506020813d60201161070f575b816106f36020938361139f565b8101031261070b5751801515810361070b575f610664565b8380fd5b3d91506106e6565b6040513d86823e3d90fd5b8161072c9161139f565b61073757825f61062b565b8280fd5b631e9acf1760e31b8552600485fd5b9150506020813d60201161077b575b816107666020938361139f565b81010312610777578390515f6105c5565b5f80fd5b3d9150610759565b6040513d88823e3d90fd5b6313be252b60e01b8552600485fd5b9150506020813d6020116107ca575b816107b96020938361139f565b81010312610777578390515f610594565b3d91506107ac565b63244c2f5160e21b8552600485fd5b630b094f2760e31b8452600484fd5b63a393bec560e01b8452600484fd5b63d92e233d60e01b8452600484fd5b5034610168578060031936011261016857610827611822565b5f516020612a765f395f51905f5280546001600160a01b0319811690915581906001600160a01b03167f8be0079c531659141344cd1fd0a4f28419497f9722a3daafe3b4186f6b6457e08280a380f35b50346101685780600319360112610168576020600854604051908152f35b5034610168578060031936011261016857602060ff5f516020612ab65f395f51905f5254166040519015158152f35b50346101685780600319360112610168577f00000000000000000000000000000000000000000000000000000000000000006001600160a01b0316300361091c5760206040515f516020612a965f395f51905f528152f35b63703e46dd60e11b8152600490fd5b50604036600319011261016857610940611389565b906024359167ffffffffffffffff8311610b3d5736602384011215610b3d57826004013561096d816113d5565b9361097b604051958661139f565b818552366024838301011161070b5781849260246020930183880137850101526001600160a01b037f000000000000000000000000000000000000000000000000000000000000000016308114908115610b1b575b50610b0c576109dd611822565b6040516352d1902d60e01b8152926001600160a01b0382169190602085600481865afa80958596610ad4575b50610a2257634c9c8ce360e01b84526004839052602484fd5b9091845f516020612a965f395f51905f528103610ac25750823b15610ab0575f516020612a965f395f51905f5280546001600160a01b031916821790557fbc7cd75a20ee27fd9adebab32041f755214dbc6bffa90cc0225b39da2e5c2d3b8480a2805115610a9757610a93916118d8565b5080f35b505034610aa15780f35b63b398979f60e01b8152600490fd5b634c9c8ce360e01b8452600452602483fd5b632a87526960e21b8552600452602484fd5b9095506020813d602011610b04575b81610af06020938361139f565b81010312610b005751945f610a09565b8480fd5b3d9150610ae3565b63703e46dd60e11b8252600482fd5b5f516020612a965f395f51905f52546001600160a01b0316141590505f6109d0565b5080fd5b50346101685780600319360112610168576002546040516001600160a01b039091168152602090f35b503461016857604036600319011261016857610b84611389565b6024356001600160a01b03811690819003610737575f516020612ad65f395f51905f52549160ff8360401c16159267ffffffffffffffff811680159081610d90575b6001149081610d86575b159081610d7d575b50610d6e5767ffffffffffffffff1981166001175f516020612ad65f395f51905f525583610d42575b50610c0a6118ad565b610c126118ad565b610c1b3361154f565b610c236118ad565b60018060a01b03166bffffffffffffffffffffffff60a01b60015416176001556bffffffffffffffffffffffff60a01b6002541617600255603260035560326004556040516111118082019082821067ffffffffffffffff831117610d2e579082916119658339039083f08015610d235782546001600160a01b0319166001600160a01b039190911617825560056006556103e860075560026008819055600955610ccb5780f35b68ff0000000000000000195f516020612ad65f395f51905f5254165f516020612ad65f395f51905f52557fc7f505b2f371ae2175ee4913f4499e1f2633a7b5936321eed1cdaeb6115181d2602060405160018152a180f35b6040513d84823e3d90fd5b634e487b7160e01b85526041600452602485fd5b68ffffffffffffffffff191668010000000000000001175f516020612ad65f395f51905f52555f610c01565b63f92ee8a960e01b8552600485fd5b9050155f610bd8565b303b159150610bd0565b859150610bc6565b5034610168578060031936011261016857610db1611822565b5f516020612ab65f395f51905f525460ff811615610e095760ff19165f516020612ab65f395f51905f52557f5db9ee0a495bf2e6ff9c91a7834c1ba4fdd244a5e8aa4e537bd38aeae4b073aa6020604051338152a180f35b638dfc202b60e01b8252600482fd5b50346101685780600319360112610168576020600454604051908152f35b50346101685780600319360112610168576020600354604051908152f35b503461077757604036600319011261077757610e6e611389565b60243590610e7a6115c0565b610e8261161e565b6001600160a01b038116801561136057821561135157805f52600a60205260ff60405f2054161561134257604051636eb1769f60e11b8152336004820152306024820152602081604481855afa80156112225784915f9161130d575b50106112fe576040516370a0823160e01b8152336004820152602081602481855afa80156112225784915f916112c9575b50106112ba578084915f52600b6020528360018060a01b0360405f205416918215610fef575b90610f439130903390611645565b610f4c846116ea565b90610f61610f5a83876114cc565b9285611743565b6001600160a01b0316803b15610737576040516340c10f1960e01b8152336004820152602481019290925282908290604490829084905af18015610d2357610fda575b50507f6f3daae623ae67ee0d7c85bb96e922d0bdc9fbcfbc6814a44d6abb2066ff0ff49161069f604051928392429133856114ed565b81610fe49161139f565b61073757825f610fa4565b6040516306fdde0360e01b8152935091505f905082600481845afa918215611222575f9261129e575b506040516395d89b4160e01b81525f81600481855afa908115611222575f9161127c575b5060405163313ce56760e01b815292602084600481865afa938415611222575f9461123c575b506110d760226020936110a7602786956040519788916602634b8bab4b2160cd1b828401528051918291018484015e81015f838201520301601f19810187528661139f565b604051938491616c6960f01b828401528051918291018484015e81015f838201520301601f19810183528261139f565b6e5af43d82803e903d91602b57fd5bf35f54763d602d80600a3d3981f3363d3d373d3d3d363d7300000062ffffff8260881c16175f526effffffffffffffffffffffffffffff199060781b1617602052603760095ff06001600160a01b0381169290831561122d5794833b15610777575f9161117b9160ff61118d6040519687958695637b69774360e11b8752306004880152608060248801526084870190611445565b85810360031901604487015290611445565b91166064830152038183865af1801561122257611209575b5084869392610f43927f4675ee6a9586f628182ae46aefda879e2c1b7d316484a01e18c65cc1729f4aaa6060604051848152836020820152426040820152a1818652600b6020526040862080546001600160a01b0319169091179055909150610f35565b61121891939296505f9061139f565b5f949091846111a5565b6040513d5f823e3d90fd5b63b06ebf3d60e01b5f5260045ffd5b9093506020813d602011611274575b816112586020938361139f565b81010312610777575160ff8116810361077757926110d7611062565b3d915061124b565b61129891503d805f833e611290818361139f565b810190611469565b5f61103c565b6112b39192503d805f833e611290818361139f565b905f611018565b631e9acf1760e31b5f5260045ffd5b9150506020813d6020116112f6575b816112e56020938361139f565b81010312610777578390515f610f0f565b3d91506112d8565b6313be252b60e01b5f5260045ffd5b9150506020813d60201161133a575b816113296020938361139f565b81010312610777578390515f610ede565b3d915061131c565b630b094f2760e31b5f5260045ffd5b63a393bec560e01b5f5260045ffd5b63d92e233d60e01b5f5260045ffd5b34610777575f366003190112610777576020906009548152f35b600435906001600160a01b038216820361077757565b90601f8019910116810190811067ffffffffffffffff8211176113c157604052565b634e487b7160e01b5f52604160045260245ffd5b67ffffffffffffffff81116113c157601f01601f191660200190565b9060206003198301126107775760043567ffffffffffffffff811161077757826023820112156107775780600401359267ffffffffffffffff84116107775760248460051b83010111610777576024019190565b805180835260209291819084018484015e5f828201840152601f01601f1916010190565b6020818303126107775780519067ffffffffffffffff8211610777570181601f820112156107775780519061149d826113d5565b926114ab604051948561139f565b8284526020838301011161077757815f9260208093018386015e8301015290565b919082039182116114d957565b634e487b7160e01b5f52601160045260245ffd5b6001600160a01b039182168152911660208201526040810191909152606081019190915260800190565b91908110156115275760051b0190565b634e487b7160e01b5f52603260045260245ffd5b356001600160a01b03811681036107775790565b6001600160a01b031680156115ad575f516020612a765f395f51905f5280546001600160a01b0319811683179091556001600160a01b03167f8be0079c531659141344cd1fd0a4f28419497f9722a3daafe3b4186f6b6457e05f80a3565b631e4fbdf760e01b5f525f60045260245ffd5b60027f9b779b17422d0df92223018b32b4d1fa46e071723d6817e2486d003becc55f00541461160f5760027f9b779b17422d0df92223018b32b4d1fa46e071723d6817e2486d003becc55f0055565b633ee5aeb560e01b5f5260045ffd5b60ff5f516020612ab65f395f51905f52541661163657565b63d93c066560e01b5f5260045ffd5b6040516323b872dd60e01b5f9081526001600160a01b039384166004529290931660245260449390935260209060648180865af19060015f51148216156116b6575b6040525f606052156116965750565b635274afe760e01b5f9081526001600160a01b0391909116600452602490fd5b9060018115166116ce57823b15153d15161690611687565b503d5f823e3d90fd5b818102929181159184041417156114d957565b6116f6600654826116d7565b60075490811561172f5704908160085411611725575b8110156117165790565b632851baa360e01b5f5260045ffd5b600954915061170c565b634e487b7160e01b5f52601260045260245ffd5b907fb36e7e0fed1d9dba43ffe2a0622f8e07cbc2aa264af47a5a5fde9edd5d94770e917f6e1cd4934890adc1ed32d2a359852b71b06ceb4a37b5a1c603815d68632aea8e60646117a481611799600354876116d7565b0494600454906116d7565b04926117da8460018060a01b0385166117c88460018060a01b036001541683611855565b6002546001600160a01b031690611855565b6001546040519182916117fa91429187906001600160a01b0316856114ed565b0390a160025460405192839261181d92429291906001600160a01b0316856114ed565b0390a1565b5f516020612a765f395f51905f52546001600160a01b0316330361184257565b63118cdaa760e01b5f523360045260245ffd5b916040519163a9059cbb60e01b5f5260018060a01b031660045260245260205f60448180865af19060015f5114821615611895575b604052156116965750565b9060018115166116ce57823b15153d1516169061188a565b60ff5f516020612ad65f395f51905f525460401c16156118c957565b631afcd79f60e31b5f5260045ffd5b905f8091602081519101845af48080611951575b1561190c5750506040513d81523d5f602083013e60203d82010160405290565b1561193157639996b31560e01b5f9081526001600160a01b0391909116600452602490fd5b3d15611942576040513d5f823e3d90fd5b63d6bda27560e01b5f5260045ffd5b503d1515806118ec5750813b15156118ec56fe6080806040523460aa575f5160206110f15f395f51905f525460ff8160401c16609b576002600160401b03196001600160401b038216016049575b60405161104290816100af8239f35b6001600160401b0319166001600160401b039081175f5160206110f15f395f51905f525581527fc7f505b2f371ae2175ee4913f4499e1f2633a7b5936321eed1cdaeb6115181d290602090a15f80603a565b63f92ee8a960e01b5f5260045ffd5b5f80fdfe60806040526004361015610011575f80fd5b5f3560e01c806306fdde0314610a3f578063095ea7b31461099a57806318160ddd1461097157806323b872dd14610939578063313ce5671461091a57806340c10f191461084957806342966c681461082c57806370a08231146107e8578063715018a61461078157806379cc6790146107515780638da5cb5b1461071d57806395d89b411461062b578063a9059cbb146105fa578063dd62ed3e146105b3578063f2fde38b1461058d5763f6d2ee86146100c9575f80fd5b34610589576080366003190112610589576100e2610b26565b60243567ffffffffffffffff811161058957610102903690600401610b52565b60443567ffffffffffffffff811161058957610122903690600401610b52565b9390916064359260ff8416809403610589575f516020610fed5f395f51905f525460ff8160401c16159567ffffffffffffffff821680159081610581575b6001149081610577575b15908161056e575b5061055f5767ffffffffffffffff1982166001175f516020610fed5f395f51905f52556101b3936101ab9288610533575b503691610c83565b953691610c83565b936101bc610f21565b6101c4610f21565b80519067ffffffffffffffff821161041c5781906101ef5f516020610f4d5f395f51905f5254610b80565b601f81116104b9575b50602090601f831160011461043b575f92610430575b50508160011b915f199060031b1c1916175f516020610f4d5f395f51905f52555b835167ffffffffffffffff811161041c576102575f516020610f8d5f395f51905f5254610b80565b601f81116103ad575b506020601f821160011461032c5781906102bb9495965f92610321575b50508160011b915f199060031b1c1916175f516020610f8d5f395f51905f52555b6102a6610f21565b6102ae610f21565b6102b6610f21565b610c12565b60ff195f5416175f556102ca57005b68ff0000000000000000195f516020610fed5f395f51905f5254165f516020610fed5f395f51905f52557fc7f505b2f371ae2175ee4913f4499e1f2633a7b5936321eed1cdaeb6115181d2602060405160018152a1005b015190505f8061027d565b601f198216955f516020610f8d5f395f51905f525f52815f20965f5b8181106103955750916102bb9596979184600195941061037d575b505050811b015f516020610f8d5f395f51905f525561029e565b01515f1960f88460031b161c191690555f8080610363565b83830151895560019098019760209384019301610348565b5f516020610f8d5f395f51905f525f527f46a2803e59a4de4e7a4c574b1243f25977ac4c77d5a1a4a609b5394cebb4a2aa601f830160051c81019160208410610412575b601f0160051c01905b8181106104075750610260565b5f81556001016103fa565b90915081906103f1565b634e487b7160e01b5f52604160045260245ffd5b015190505f8061020e565b5f516020610f4d5f395f51905f525f9081528281209350601f198516905b8181106104a15750908460019594939210610489575b505050811b015f516020610f4d5f395f51905f525561022f565b01515f1960f88460031b161c191690555f808061046f565b92936020600181928786015181550195019301610459565b5f516020610f4d5f395f51905f525f529091507f2ae08a8e29253f69ac5d979a101956ab8f8d9d7ded63fa7a83b16fc47648eab0601f840160051c81019160208510610529575b90601f859493920160051c01905b81811061051b57506101f8565b5f815584935060010161050e565b9091508190610500565b68ffffffffffffffffff191668010000000000000001175f516020610fed5f395f51905f52555f6101a3565b63f92ee8a960e01b5f5260045ffd5b9050155f610172565b303b15915061016a565b889150610160565b5f80fd5b34610589576020366003190112610589576105b16105a9610b26565b6102b6610e38565b005b34610589576040366003190112610589576105cc610b26565b6105dd6105d7610b3c565b91610bda565b9060018060a01b03165f52602052602060405f2054604051908152f35b3461058957604036600319011261058957610620610616610b26565b6024359033610d67565b602060405160018152f35b34610589575f366003190112610589576040515f5f516020610f8d5f395f51905f525461065781610b80565b80845290600181169081156106f9575060011461068f575b61068b8361067f81850382610bb8565b60405191829182610afc565b0390f35b5f516020610f8d5f395f51905f525f9081527f46a2803e59a4de4e7a4c574b1243f25977ac4c77d5a1a4a609b5394cebb4a2aa939250905b8082106106df5750909150810160200161067f61066f565b9192600181602092548385880101520191019092916106c7565b60ff191660208086019190915291151560051b8401909101915061067f905061066f565b34610589575f366003190112610589575f516020610fad5f395f51905f52546040516001600160a01b039091168152602090f35b34610589576040366003190112610589576105b161076d610b26565b6024359061077c823383610cc9565b610e6b565b34610589575f36600319011261058957610799610e38565b5f516020610fad5f395f51905f5280546001600160a01b031981169091555f906001600160a01b03167f8be0079c531659141344cd1fd0a4f28419497f9722a3daafe3b4186f6b6457e08280a3005b34610589576020366003190112610589576001600160a01b03610809610b26565b165f525f516020610f6d5f395f51905f52602052602060405f2054604051908152f35b34610589576020366003190112610589576105b160043533610e6b565b3461058957604036600319011261058957610862610b26565b6024359061086e610e38565b6001600160a01b0316908115610907575f516020610fcd5f395f51905f5254908082018092116108f35760207fddf252ad1be2c89b69c2b068fc378daa952ba7f163c4a11628f55a4df523b3ef915f935f516020610fcd5f395f51905f52558484525f516020610f6d5f395f51905f52825260408420818154019055604051908152a3005b634e487b7160e01b5f52601160045260245ffd5b63ec442f0560e01b5f525f60045260245ffd5b34610589575f36600319011261058957602060ff5f5416604051908152f35b3461058957606036600319011261058957610620610955610b26565b61095d610b3c565b6044359161096c833383610cc9565b610d67565b34610589575f3660031901126105895760205f516020610fcd5f395f51905f5254604051908152f35b34610589576040366003190112610589576109b3610b26565b602435903315610a2c576001600160a01b0316908115610a19576109d633610bda565b825f526020528060405f20556040519081527f8c5be1e5ebec7d5bd14f71427d1e84f3dd0314c0f7b2291e5b200ac8c7c3b92560203392a3602060405160018152f35b634a1406b160e11b5f525f60045260245ffd5b63e602df0560e01b5f525f60045260245ffd5b34610589575f366003190112610589576040515f5f516020610f4d5f395f51905f5254610a6b81610b80565b80845290600181169081156106f95750600114610a925761068b8361067f81850382610bb8565b5f516020610f4d5f395f51905f525f9081527f2ae08a8e29253f69ac5d979a101956ab8f8d9d7ded63fa7a83b16fc47648eab0939250905b808210610ae25750909150810160200161067f61066f565b919260018160209254838588010152019101909291610aca565b602060409281835280519182918282860152018484015e5f828201840152601f01601f1916010190565b600435906001600160a01b038216820361058957565b602435906001600160a01b038216820361058957565b9181601f840112156105895782359167ffffffffffffffff8311610589576020838186019501011161058957565b90600182811c92168015610bae575b6020831014610b9a57565b634e487b7160e01b5f52602260045260245ffd5b91607f1691610b8f565b90601f8019910116810190811067ffffffffffffffff82111761041c57604052565b6001600160a01b03165f9081527f52c63247e1f47db19d5ce0460030c497f067ca4cebf71ba98eeadabe20bace016020526040902090565b6001600160a01b03168015610c70575f516020610fad5f395f51905f5280546001600160a01b0319811683179091556001600160a01b03167f8be0079c531659141344cd1fd0a4f28419497f9722a3daafe3b4186f6b6457e05f80a3565b631e4fbdf760e01b5f525f60045260245ffd5b92919267ffffffffffffffff821161041c5760405191610cad601f8201601f191660200184610bb8565b829481845281830111610589578281602093845f960137010152565b9190610cd483610bda565b60018060a01b0382165f5260205260405f2054925f198410610cf7575b50505050565b828410610d44576001600160a01b03811615610a2c576001600160a01b03821615610a1957610d2590610bda565b9060018060a01b03165f5260205260405f20910390555f808080610cf1565b508290637dc7a0d960e11b5f5260018060a01b031660045260245260445260645ffd5b6001600160a01b0316908115610e25576001600160a01b031691821561090757815f525f516020610f6d5f395f51905f5260205260405f2054818110610e0c57817fddf252ad1be2c89b69c2b068fc378daa952ba7f163c4a11628f55a4df523b3ef92602092855f525f516020610f6d5f395f51905f5284520360405f2055845f525f516020610f6d5f395f51905f52825260405f20818154019055604051908152a3565b8263391434e360e21b5f5260045260245260445260645ffd5b634b637e8f60e11b5f525f60045260245ffd5b5f516020610fad5f395f51905f52546001600160a01b03163303610e5857565b63118cdaa760e01b5f523360045260245ffd5b9091906001600160a01b03168015610e2557805f525f516020610f6d5f395f51905f5260205260405f2054838110610f07576020845f94957fddf252ad1be2c89b69c2b068fc378daa952ba7f163c4a11628f55a4df523b3ef938587525f516020610f6d5f395f51905f528452036040862055805f516020610fcd5f395f51905f5254035f516020610fcd5f395f51905f5255604051908152a3565b915063391434e360e21b5f5260045260245260445260645ffd5b60ff5f516020610fed5f395f51905f525460401c1615610f3d57565b631afcd79f60e31b5f5260045ffdfe52c63247e1f47db19d5ce0460030c497f067ca4cebf71ba98eeadabe20bace0352c63247e1f47db19d5ce0460030c497f067ca4cebf71ba98eeadabe20bace0052c63247e1f47db19d5ce0460030c497f067ca4cebf71ba98eeadabe20bace049016d09d72d40fdae2fd8ceac6b6234c7706214fd39c1cd1e609a0528c19930052c63247e1f47db19d5ce0460030c497f067ca4cebf71ba98eeadabe20bace02f0c57e16840df040f15088dc2f81fe391c3923bec73e23a9662efc9c229c6a00a2646970667358221220dd4c0c59a22c6e2051c492c6916c43a8fb77db7c4f506d023e7533a04705fab764736f6c634300081e0033f0c57e16840df040f15088dc2f81fe391c3923bec73e23a9662efc9c229c6a009016d09d72d40fdae2fd8ceac6b6234c7706214fd39c1cd1e609a0528c199300360894a13ba1a3210667c828492db98dca3e2076cc3735a920a3ca505d382bbccd5ed15c6e187e77e9aee88184c21f4f2182ab5827cb3b7e07fbedcd63f03300f0c57e16840df040f15088dc2f81fe391c3923bec73e23a9662efc9c229c6a00a26469706673582212205a38c34ace6c89061aa3207a8f1784889f3e4d2dd3b628494ce084216808528b64736f6c634300081e0033f0c57e16840df040f15088dc2f81fe391c3923bec73e23a9662efc9c229c6a00",
        "nonce": "0x0",
        "chainId": "0x1"
      },
      "additionalContracts": [],
      "isFixedGasLimit": false
    },
    {
      "hash": "0x31ca332e0a9c6a665d02c921bfdab21a29831ee6ff3ee8d5498a7164a436da9d",
      "transactionType": "CREATE",
      "contractName": "ERC1967Proxy",
      "contractAddress": "0xa15bb66138824a1c7167f5e85b957d04dd34e468",
      "function": null,
      "arguments": [
        "0x700b6A60ce7EaaEA56F065753d8dcB9653dbAD35",
        "0x485cc955000000000000000000000000f39fd6e51aad88f6f4ce6ab8827279cfffb9226600000000000000000000000070997970c51812dc3a010c7d01b50e0d17dc79c8"
      ],
      "transaction": {
        "from": "0xa0ee7a142d267c1f36714e4a8f75612f20a79720",
        "gas": "0x18e740",
        "value": "0x0",
        "input": "0x608060405261028c8038038061001481610158565b9283398101604082820312610140578151916001600160a01b03831690818403610140576020810151906001600160401b038211610140570182601f82011215610140578051906001600160401b0382116101445761007c601f8301601f1916602001610158565b938285526020838301011161014057815f9260208093018387015e84010152823b1561012e577f360894a13ba1a3210667c828492db98dca3e2076cc3735a920a3ca505d382bbc80546001600160a01b031916821790557fbc7cd75a20ee27fd9adebab32041f755214dbc6bffa90cc0225b39da2e5c2d3b5f80a2805115610117576101079161017d565b505b6040516082908161020a8239f35b505034156101095763b398979f60e01b5f5260045ffd5b634c9c8ce360e01b5f5260045260245ffd5b5f80fd5b634e487b7160e01b5f52604160045260245ffd5b6040519190601f01601f191682016001600160401b0381118382101761014457604052565b905f8091602081519101845af480806101f6575b156101b15750506040513d81523d5f602083013e60203d82010160405290565b156101d657639996b31560e01b5f9081526001600160a01b0391909116600452602490fd5b3d156101e7576040513d5f823e3d90fd5b63d6bda27560e01b5f5260045ffd5b503d1515806101915750813b151561019156fe60806040527f360894a13ba1a3210667c828492db98dca3e2076cc3735a920a3ca505d382bbc545f9081906001600160a01b0316368280378136915af43d5f803e156048573d5ff35b3d5ffdfea26469706673582212203a60faf524d3429da2ed5f7bff6112636dd25af6cf426e5e6a3f3d080d64904464736f6c634300081e0033000000000000000000000000700b6a60ce7eaaea56f065753d8dcb9653dbad3500000000000000000000000000000000000000000000000000000000000000400000000000000000000000000000000000000000000000000000000000000044485cc955000000000000000000000000f39fd6e51aad88f6f4ce6ab8827279cfffb9226600000000000000000000000070997970c51812dc3a010c7d01b50e0d17dc79c800000000000000000000000000000000000000000000000000000000",
        "nonce": "0x1",
        "chainId": "0x1"
      },
      "additionalContracts": [
        {
          "transactionType": "CREATE",
          "address": "0x07e06c8fab4a6bf1e242f3d786bc5b19785bb921",
          "initCode": "0x6080806040523460aa575f5160206110f15f395f51905f525460ff8160401c16609b576002600160401b03196001600160401b038216016049575b60405161104290816100af8239f35b6001600160401b0319166001600160401b039081175f5160206110f15f395f51905f525581527fc7f505b2f371ae2175ee4913f4499e1f2633a7b5936321eed1cdaeb6115181d290602090a15f80603a565b63f92ee8a960e01b5f5260045ffd5b5f80fdfe60806040526004361015610011575f80fd5b5f3560e01c806306fdde0314610a3f578063095ea7b31461099a57806318160ddd1461097157806323b872dd14610939578063313ce5671461091a57806340c10f191461084957806342966c681461082c57806370a08231146107e8578063715018a61461078157806379cc6790146107515780638da5cb5b1461071d57806395d89b411461062b578063a9059cbb146105fa578063dd62ed3e146105b3578063f2fde38b1461058d5763f6d2ee86146100c9575f80fd5b34610589576080366003190112610589576100e2610b26565b60243567ffffffffffffffff811161058957610102903690600401610b52565b60443567ffffffffffffffff811161058957610122903690600401610b52565b9390916064359260ff8416809403610589575f516020610fed5f395f51905f525460ff8160401c16159567ffffffffffffffff821680159081610581575b6001149081610577575b15908161056e575b5061055f5767ffffffffffffffff1982166001175f516020610fed5f395f51905f52556101b3936101ab9288610533575b503691610c83565b953691610c83565b936101bc610f21565b6101c4610f21565b80519067ffffffffffffffff821161041c5781906101ef5f516020610f4d5f395f51905f5254610b80565b601f81116104b9575b50602090601f831160011461043b575f92610430575b50508160011b915f199060031b1c1916175f516020610f4d5f395f51905f52555b835167ffffffffffffffff811161041c576102575f516020610f8d5f395f51905f5254610b80565b601f81116103ad575b506020601f821160011461032c5781906102bb9495965f92610321575b50508160011b915f199060031b1c1916175f516020610f8d5f395f51905f52555b6102a6610f21565b6102ae610f21565b6102b6610f21565b610c12565b60ff195f5416175f556102ca57005b68ff0000000000000000195f516020610fed5f395f51905f5254165f516020610fed5f395f51905f52557fc7f505b2f371ae2175ee4913f4499e1f2633a7b5936321eed1cdaeb6115181d2602060405160018152a1005b015190505f8061027d565b601f198216955f516020610f8d5f395f51905f525f52815f20965f5b8181106103955750916102bb9596979184600195941061037d575b505050811b015f516020610f8d5f395f51905f525561029e565b01515f1960f88460031b161c191690555f8080610363565b83830151895560019098019760209384019301610348565b5f516020610f8d5f395f51905f525f527f46a2803e59a4de4e7a4c574b1243f25977ac4c77d5a1a4a609b5394cebb4a2aa601f830160051c81019160208410610412575b601f0160051c01905b8181106104075750610260565b5f81556001016103fa565b90915081906103f1565b634e487b7160e01b5f52604160045260245ffd5b015190505f8061020e565b5f516020610f4d5f395f51905f525f9081528281209350601f198516905b8181106104a15750908460019594939210610489575b505050811b015f516020610f4d5f395f51905f525561022f565b01515f1960f88460031b161c191690555f808061046f565b92936020600181928786015181550195019301610459565b5f516020610f4d5f395f51905f525f529091507f2ae08a8e29253f69ac5d979a101956ab8f8d9d7ded63fa7a83b16fc47648eab0601f840160051c81019160208510610529575b90601f859493920160051c01905b81811061051b57506101f8565b5f815584935060010161050e565b9091508190610500565b68ffffffffffffffffff191668010000000000000001175f516020610fed5f395f51905f52555f6101a3565b63f92ee8a960e01b5f5260045ffd5b9050155f610172565b303b15915061016a565b889150610160565b5f80fd5b34610589576020366003190112610589576105b16105a9610b26565b6102b6610e38565b005b34610589576040366003190112610589576105cc610b26565b6105dd6105d7610b3c565b91610bda565b9060018060a01b03165f52602052602060405f2054604051908152f35b3461058957604036600319011261058957610620610616610b26565b6024359033610d67565b602060405160018152f35b34610589575f366003190112610589576040515f5f516020610f8d5f395f51905f525461065781610b80565b80845290600181169081156106f9575060011461068f575b61068b8361067f81850382610bb8565b60405191829182610afc565b0390f35b5f516020610f8d5f395f51905f525f9081527f46a2803e59a4de4e7a4c574b1243f25977ac4c77d5a1a4a609b5394cebb4a2aa939250905b8082106106df5750909150810160200161067f61066f565b9192600181602092548385880101520191019092916106c7565b60ff191660208086019190915291151560051b8401909101915061067f905061066f565b34610589575f366003190112610589575f516020610fad5f395f51905f52546040516001600160a01b039091168152602090f35b34610589576040366003190112610589576105b161076d610b26565b6024359061077c823383610cc9565b610e6b565b34610589575f36600319011261058957610799610e38565b5f516020610fad5f395f51905f5280546001600160a01b031981169091555f906001600160a01b03167f8be0079c531659141344cd1fd0a4f28419497f9722a3daafe3b4186f6b6457e08280a3005b34610589576020366003190112610589576001600160a01b03610809610b26565b165f525f516020610f6d5f395f51905f52602052602060405f2054604051908152f35b34610589576020366003190112610589576105b160043533610e6b565b3461058957604036600319011261058957610862610b26565b6024359061086e610e38565b6001600160a01b0316908115610907575f516020610fcd5f395f51905f5254908082018092116108f35760207fddf252ad1be2c89b69c2b068fc378daa952ba7f163c4a11628f55a4df523b3ef915f935f516020610fcd5f395f51905f52558484525f516020610f6d5f395f51905f52825260408420818154019055604051908152a3005b634e487b7160e01b5f52601160045260245ffd5b63ec442f0560e01b5f525f60045260245ffd5b34610589575f36600319011261058957602060ff5f5416604051908152f35b3461058957606036600319011261058957610620610955610b26565b61095d610b3c565b6044359161096c833383610cc9565b610d67565b34610589575f3660031901126105895760205f516020610fcd5f395f51905f5254604051908152f35b34610589576040366003190112610589576109b3610b26565b602435903315610a2c576001600160a01b0316908115610a19576109d633610bda565b825f526020528060405f20556040519081527f8c5be1e5ebec7d5bd14f71427d1e84f3dd0314c0f7b2291e5b200ac8c7c3b92560203392a3602060405160018152f35b634a1406b160e11b5f525f60045260245ffd5b63e602df0560e01b5f525f60045260245ffd5b34610589575f366003190112610589576040515f5f516020610f4d5f395f51905f5254610a6b81610b80565b80845290600181169081156106f95750600114610a925761068b8361067f81850382610bb8565b5f516020610f4d5f395f51905f525f9081527f2ae08a8e29253f69ac5d979a101956ab8f8d9d7ded63fa7a83b16fc47648eab0939250905b808210610ae25750909150810160200161067f61066f565b919260018160209254838588010152019101909291610aca565b602060409281835280519182918282860152018484015e5f828201840152601f01601f1916010190565b600435906001600160a01b038216820361058957565b602435906001600160a01b038216820361058957565b9181601f840112156105895782359167ffffffffffffffff8311610589576020838186019501011161058957565b90600182811c92168015610bae575b6020831014610b9a57565b634e487b7160e01b5f52602260045260245ffd5b91607f1691610b8f565b90601f8019910116810190811067ffffffffffffffff82111761041c57604052565b6001600160a01b03165f9081527f52c63247e1f47db19d5ce0460030c497f067ca4cebf71ba98eeadabe20bace016020526040902090565b6001600160a01b03168015610c70575f516020610fad5f395f51905f5280546001600160a01b0319811683179091556001600160a01b03167f8be0079c531659141344cd1fd0a4f28419497f9722a3daafe3b4186f6b6457e05f80a3565b631e4fbdf760e01b5f525f60045260245ffd5b92919267ffffffffffffffff821161041c5760405191610cad601f8201601f191660200184610bb8565b829481845281830111610589578281602093845f960137010152565b9190610cd483610bda565b60018060a01b0382165f5260205260405f2054925f198410610cf7575b50505050565b828410610d44576001600160a01b03811615610a2c576001600160a01b03821615610a1957610d2590610bda565b9060018060a01b03165f5260205260405f20910390555f808080610cf1565b508290637dc7a0d960e11b5f5260018060a01b031660045260245260445260645ffd5b6001600160a01b0316908115610e25576001600160a01b031691821561090757815f525f516020610f6d5f395f51905f5260205260405f2054818110610e0c57817fddf252ad1be2c89b69c2b068fc378daa952ba7f163c4a11628f55a4df523b3ef92602092855f525f516020610f6d5f395f51905f5284520360405f2055845f525f516020610f6d5f395f51905f52825260405f20818154019055604051908152a3565b8263391434e360e21b5f5260045260245260445260645ffd5b634b637e8f60e11b5f525f60045260245ffd5b5f516020610fad5f395f51905f52546001600160a01b03163303610e5857565b63118cdaa760e01b5f523360045260245ffd5b9091906001600160a01b03168015610e2557805f525f516020610f6d5f395f51905f5260205260405f2054838110610f07576020845f94957fddf252ad1be2c89b69c2b068fc378daa952ba7f163c4a11628f55a4df523b3ef938587525f516020610f6d5f395f51905f528452036040862055805f516020610fcd5f395f51905f5254035f516020610fcd5f395f51905f5255604051908152a3565b915063391434e360e21b5f5260045260245260445260645ffd5b60ff5f516020610fed5f395f51905f525460401c1615610f3d57565b631afcd79f60e31b5f5260045ffdfe52c63247e1f47db19d5ce0460030c497f067ca4cebf71ba98eeadabe20bace0352c63247e1f47db19d5ce0460030c497f067ca4cebf71ba98eeadabe20bace0052c63247e1f47db19d5ce0460030c497f067ca4cebf71ba98eeadabe20bace049016d09d72d40fdae2fd8ceac6b6234c7706214fd39c1cd1e609a0528c19930052c63247e1f47db19d5ce0460030c497f067ca4cebf71ba98eeadabe20bace02f0c57e16840df040f15088dc2f81fe391c3923bec73e23a9662efc9c229c6a00a2646970667358221220dd4c0c59a22c6e2051c492c6916c43a8fb77db7c4f506d023e7533a04705fab764736f6c634300081e0033f0c57e16840df040f15088dc2f81fe391c3923bec73e23a9662efc9c229c6a00"
        }
      ],
      "isFixedGasLimit": false
    },
    {
      "hash": "0xa402ae53c0673edc18796244b1d673352eb896e2ea3d00f0ae24f7ed2fb45d2e",
      "transactionType": "CREATE",
      "contractName": null,
      "contractAddress": "0xb19b36b1456e65e3a6d514d3f715f204bd59f431",
      "function": null,
      "arguments": null,
      "transaction": {
        "from": "0xa0ee7a142d267c1f36714e4a8f75612f20a79720",
        "gas": "0x13f7d",
        "value": "0x0",
        "input": "0x3d602d80600a3d3981f3363d3d373d3d3d363d7307e06c8fab4a6bf1e242f3d786bc5b19785bb9215af43d82803e903d91602b57fd5bf3",
        "nonce": "0x2",
        "chainId": "0x1"
      },
      "additionalContracts": [],
      "isFixedGasLimit": false
    },
    {
      "hash": "0xb76d9d8d218c7bfa23b9149d4b203f9b0131c655f8e78484ec380573154fb0e1",
      "transactionType": "CALL",
      "contractName": null,
      "contractAddress": "0xb19b36b1456e65e3a6d514d3f715f204bd59f431",
      "function": "initialize(address,string,string,uint8)",
      "arguments": [
        "0xa0Ee7A142d267C1f36714E4a8F75612F20a79720",
        "Token1",
        "T1",
        "18"
      ],
      "transaction": {
        "from": "0xa0ee7a142d267c1f36714e4a8f75612f20a79720",
        "to": "0xb19b36b1456e65e3a6d514d3f715f204bd59f431",
        "gas": "0x32c6c",
        "value": "0x0",
        "input": "0xf6d2ee86000000000000000000000000a0ee7a142d267c1f36714e4a8f75612f20a79720000000000000000000000000000000000000000000000000000000000000008000000000000000000000000000000000000000000000000000000000000000c000000000000000000000000000000000000000000000000000000000000000120000000000000000000000000000000000000000000000000000000000000006546f6b656e31000000000000000000000000000000000000000000000000000000000000000000000000000000000000000000000000000000000000000000025431000000000000000000000000000000000000000000000000000000000000",
        "nonce": "0x3",
        "chainId": "0x1"
      },
      "additionalContracts": [],
      "isFixedGasLimit": false
    },
    {
      "hash": "0xb14f423f95f76487a5caa7b346a92e7eb56ca7776187b6368b2968ead1fe21a5",
      "transactionType": "CALL",
      "contractName": null,
      "contractAddress": "0xb19b36b1456e65e3a6d514d3f715f204bd59f431",
      "function": "mint(address,uint256)",
      "arguments": [
        "0xa0Ee7A142d267C1f36714E4a8F75612F20a79720",
        "100000000000000000000"
      ],
      "transaction": {
        "from": "0xa0ee7a142d267c1f36714e4a8f75612f20a79720",
        "to": "0xb19b36b1456e65e3a6d514d3f715f204bd59f431",
        "gas": "0x18a33",
        "value": "0x0",
        "input": "0x40c10f19000000000000000000000000a0ee7a142d267c1f36714e4a8f75612f20a797200000000000000000000000000000000000000000000000056bc75e2d63100000",
        "nonce": "0x4",
        "chainId": "0x1"
      },
      "additionalContracts": [],
      "isFixedGasLimit": false
    },
    {
      "hash": "0xf8e34b5b8fa991167a55adecdee40b20c7bdd10ed44d1473c8cd8836fbfc86bc",
      "transactionType": "CALL",
      "contractName": "ERC1967Proxy",
      "contractAddress": "0xa15bb66138824a1c7167f5e85b957d04dd34e468",
      "function": null,
      "arguments": null,
      "transaction": {
        "from": "0xa0ee7a142d267c1f36714e4a8f75612f20a79720",
        "to": "0xa15bb66138824a1c7167f5e85b957d04dd34e468",
        "gas": "0x117a5",
        "value": "0x0",
        "input": "0x9214423700000000000000000000000000000000000000000000000000000000000000200000000000000000000000000000000000000000000000000000000000000001000000000000000000000000a0ee7a142d267c1f36714e4a8f75612f20a79720",
        "nonce": "0x5",
        "chainId": "0x1"
      },
      "additionalContracts": [],
      "isFixedGasLimit": false
    },
    {
      "hash": "0x628d780c1bda7fb4c8d3df242afe47efe6fc9f9c9edb531f1b7920c83ed6f5bf",
      "transactionType": "CALL",
      "contractName": "ERC1967Proxy",
      "contractAddress": "0xa15bb66138824a1c7167f5e85b957d04dd34e468",
      "function": null,
      "arguments": null,
      "transaction": {
        "from": "0xa0ee7a142d267c1f36714e4a8f75612f20a79720",
        "to": "0xa15bb66138824a1c7167f5e85b957d04dd34e468",
        "gas": "0x11f54",
        "value": "0x0",
        "input": "0xbd8aa78000000000000000000000000000000000000000000000000000000000000000200000000000000000000000000000000000000000000000000000000000000001000000000000000000000000b19b36b1456e65e3a6d514d3f715f204bd59f431",
        "nonce": "0x6",
        "chainId": "0x1"
      },
      "additionalContracts": [],
      "isFixedGasLimit": false
    },
    {
      "hash": "0x79148409f46563b72a09bed417f34de935e03221a506823edecc8a063c55d1b2",
      "transactionType": "CALL",
      "contractName": null,
      "contractAddress": "0xb19b36b1456e65e3a6d514d3f715f204bd59f431",
      "function": "approve(address,uint256)",
      "arguments": [
        "0xA15BB66138824a1c7167f5E85b957d04Dd34E468",
        "10000000000000000000"
      ],
      "transaction": {
        "from": "0xa0ee7a142d267c1f36714e4a8f75612f20a79720",
        "to": "0xb19b36b1456e65e3a6d514d3f715f204bd59f431",
        "gas": "0x106a5",
        "value": "0x0",
        "input": "0x095ea7b3000000000000000000000000a15bb66138824a1c7167f5e85b957d04dd34e4680000000000000000000000000000000000000000000000008ac7230489e80000",
        "nonce": "0x7",
        "chainId": "0x1"
      },
      "additionalContracts": [],
      "isFixedGasLimit": false
    },
    {
      "hash": "0x5ad24a12a5250b45b5d999c99bd2e1bff24e562013e3e6780c80daa68abd445b",
      "transactionType": "CALL",
      "contractName": "ERC1967Proxy",
      "contractAddress": "0xa15bb66138824a1c7167f5e85b957d04dd34e468",
      "function": null,
      "arguments": null,
      "transaction": {
        "from": "0xa0ee7a142d267c1f36714e4a8f75612f20a79720",
        "to": "0xa15bb66138824a1c7167f5e85b957d04dd34e468",
        "gas": "0x91a46",
        "value": "0x0",
        "input": "0x282d3fdf000000000000000000000000b19b36b1456e65e3a6d514d3f715f204bd59f4310000000000000000000000000000000000000000000000008ac7230489e80000",
        "nonce": "0x8",
        "chainId": "0x1"
      },
      "additionalContracts": [
        {
          "transactionType": "CREATE",
          "address": "0xe88c975ff7dc40e80a84b6d0a81f23317322f325",
          "initCode": "0x3d602d80600a3d3981f3363d3d373d3d3d363d7307e06c8fab4a6bf1e242f3d786bc5b19785bb9215af43d82803e903d91602b57fd5bf3"
        }
      ],
      "isFixedGasLimit": false
    },
    {
      "hash": "0x8e10c17becdd509a604bb97da90a738aaedd282801c82d7e4ee8ade07f3a8f04",
      "transactionType": "CREATE",
      "contractName": null,
      "contractAddress": "0x12975173b87f7595ee45dffb2ab812ece596bf84",
      "function": null,
      "arguments": null,
      "transaction": {
        "from": "0xa0ee7a142d267c1f36714e4a8f75612f20a79720",
        "gas": "0x13f7d",
        "value": "0x0",
        "input": "0x3d602d80600a3d3981f3363d3d373d3d3d363d7307e06c8fab4a6bf1e242f3d786bc5b19785bb9215af43d82803e903d91602b57fd5bf3",
        "nonce": "0x9",
        "chainId": "0x1"
      },
      "additionalContracts": [],
      "isFixedGasLimit": false
    },
    {
      "hash": "0x0529636eaec03e766cf9f849584c0bcb797d30c9113fa7ba7568ec070135410c",
      "transactionType": "CALL",
      "contractName": null,
      "contractAddress": "0x12975173b87f7595ee45dffb2ab812ece596bf84",
      "function": "initialize(address,string,string,uint8)",
      "arguments": [
        "0xa0Ee7A142d267C1f36714E4a8F75612F20a79720",
        "Token2",
        "T2",
        "18"
      ],
      "transaction": {
        "from": "0xa0ee7a142d267c1f36714e4a8f75612f20a79720",
        "to": "0x12975173b87f7595ee45dffb2ab812ece596bf84",
        "gas": "0x32c6c",
        "value": "0x0",
        "input": "0xf6d2ee86000000000000000000000000a0ee7a142d267c1f36714e4a8f75612f20a79720000000000000000000000000000000000000000000000000000000000000008000000000000000000000000000000000000000000000000000000000000000c000000000000000000000000000000000000000000000000000000000000000120000000000000000000000000000000000000000000000000000000000000006546f6b656e32000000000000000000000000000000000000000000000000000000000000000000000000000000000000000000000000000000000000000000025432000000000000000000000000000000000000000000000000000000000000",
        "nonce": "0xa",
        "chainId": "0x1"
      },
      "additionalContracts": [],
      "isFixedGasLimit": false
    },
    {
      "hash": "0xad1640d50b9196cb131ae502c435bf48cc9b85dc11033412af7fddd6e4adcc9a",
      "transactionType": "CALL",
      "contractName": null,
      "contractAddress": "0x12975173b87f7595ee45dffb2ab812ece596bf84",
      "function": "mint(address,uint256)",
      "arguments": [
        "0xa0Ee7A142d267C1f36714E4a8F75612F20a79720",
        "100000000000000000000"
      ],
      "transaction": {
        "from": "0xa0ee7a142d267c1f36714e4a8f75612f20a79720",
        "to": "0x12975173b87f7595ee45dffb2ab812ece596bf84",
        "gas": "0x18a33",
        "value": "0x0",
        "input": "0x40c10f19000000000000000000000000a0ee7a142d267c1f36714e4a8f75612f20a797200000000000000000000000000000000000000000000000056bc75e2d63100000",
        "nonce": "0xb",
        "chainId": "0x1"
      },
      "additionalContracts": [],
      "isFixedGasLimit": false
    },
    {
      "hash": "0x5aed2cdd8379e7d2a672f4ed489550c2885f90ff96567b1f6d6e3beb70686477",
      "transactionType": "CREATE",
      "contractName": null,
      "contractAddress": "0x82c6d3ed4cd33d8ec1e51d0b5cc1d822eaa0c3dc",
      "function": null,
      "arguments": null,
      "transaction": {
        "from": "0xa0ee7a142d267c1f36714e4a8f75612f20a79720",
        "gas": "0x13f7d",
        "value": "0x0",
        "input": "0x3d602d80600a3d3981f3363d3d373d3d3d363d7307e06c8fab4a6bf1e242f3d786bc5b19785bb9215af43d82803e903d91602b57fd5bf3",
        "nonce": "0xc",
        "chainId": "0x1"
      },
      "additionalContracts": [],
      "isFixedGasLimit": false
    },
    {
      "hash": "0xa82b1b7ecd6f7ebba0843ae0f76bb2416aa52f36a32c7991df836eab79cd67db",
      "transactionType": "CALL",
      "contractName": null,
      "contractAddress": "0x82c6d3ed4cd33d8ec1e51d0b5cc1d822eaa0c3dc",
      "function": "initialize(address,string,string,uint8)",
      "arguments": [
        "0xa0Ee7A142d267C1f36714E4a8F75612F20a79720",
        "Token3",
        "T3",
        "18"
      ],
      "transaction": {
        "from": "0xa0ee7a142d267c1f36714e4a8f75612f20a79720",
        "to": "0x82c6d3ed4cd33d8ec1e51d0b5cc1d822eaa0c3dc",
        "gas": "0x32c6c",
        "value": "0x0",
        "input": "0xf6d2ee86000000000000000000000000a0ee7a142d267c1f36714e4a8f75612f20a79720000000000000000000000000000000000000000000000000000000000000008000000000000000000000000000000000000000000000000000000000000000c000000000000000000000000000000000000000000000000000000000000000120000000000000000000000000000000000000000000000000000000000000006546f6b656e33000000000000000000000000000000000000000000000000000000000000000000000000000000000000000000000000000000000000000000025433000000000000000000000000000000000000000000000000000000000000",
        "nonce": "0xd",
        "chainId": "0x1"
      },
      "additionalContracts": [],
      "isFixedGasLimit": false
    },
    {
      "hash": "0x64060870fa884dd06ec05933bc4f6b30fe409adcdc4dd340c3040626a50e1536",
      "transactionType": "CALL",
      "contractName": null,
      "contractAddress": "0x82c6d3ed4cd33d8ec1e51d0b5cc1d822eaa0c3dc",
      "function": "mint(address,uint256)",
      "arguments": [
        "0xa0Ee7A142d267C1f36714E4a8F75612F20a79720",
        "100000000000000000000"
      ],
      "transaction": {
        "from": "0xa0ee7a142d267c1f36714e4a8f75612f20a79720",
        "to": "0x82c6d3ed4cd33d8ec1e51d0b5cc1d822eaa0c3dc",
        "gas": "0x18a33",
        "value": "0x0",
        "input": "0x40c10f19000000000000000000000000a0ee7a142d267c1f36714e4a8f75612f20a797200000000000000000000000000000000000000000000000056bc75e2d63100000",
        "nonce": "0xe",
        "chainId": "0x1"
      },
      "additionalContracts": [],
      "isFixedGasLimit": false
    },
    {
      "hash": "0x39b1d67d971e2e381b4fb2838b2f1ddebdc73d0afb9160020c3d164bbb9a4ec1",
      "transactionType": "CREATE",
      "contractName": null,
      "contractAddress": "0xd04ff4a75edd737a73e92b2f2274cb887d96e110",
      "function": null,
      "arguments": null,
      "transaction": {
        "from": "0xa0ee7a142d267c1f36714e4a8f75612f20a79720",
        "gas": "0x13f7d",
        "value": "0x0",
        "input": "0x3d602d80600a3d3981f3363d3d373d3d3d363d7307e06c8fab4a6bf1e242f3d786bc5b19785bb9215af43d82803e903d91602b57fd5bf3",
        "nonce": "0xf",
        "chainId": "0x1"
      },
      "additionalContracts": [],
      "isFixedGasLimit": false
    },
    {
      "hash": "0x295b44f30e412deec5921f2ac0cb2b0e0dcea687335a0124e4368a42ac00d41d",
      "transactionType": "CALL",
      "contractName": null,
      "contractAddress": "0xd04ff4a75edd737a73e92b2f2274cb887d96e110",
      "function": "initialize(address,string,string,uint8)",
      "arguments": [
        "0xa0Ee7A142d267C1f36714E4a8F75612F20a79720",
        "Token4",
        "T4",
        "18"
      ],
      "transaction": {
        "from": "0xa0ee7a142d267c1f36714e4a8f75612f20a79720",
        "to": "0xd04ff4a75edd737a73e92b2f2274cb887d96e110",
        "gas": "0x32c6c",
        "value": "0x0",
        "input": "0xf6d2ee86000000000000000000000000a0ee7a142d267c1f36714e4a8f75612f20a79720000000000000000000000000000000000000000000000000000000000000008000000000000000000000000000000000000000000000000000000000000000c000000000000000000000000000000000000000000000000000000000000000120000000000000000000000000000000000000000000000000000000000000006546f6b656e34000000000000000000000000000000000000000000000000000000000000000000000000000000000000000000000000000000000000000000025434000000000000000000000000000000000000000000000000000000000000",
        "nonce": "0x10",
        "chainId": "0x1"
      },
      "additionalContracts": [],
      "isFixedGasLimit": false
    },
    {
      "hash": "0x0986d25a884a499adf09fae954b8e7c18ac22c1b50a74d8d6b13f4632c43ac28",
      "transactionType": "CALL",
      "contractName": null,
      "contractAddress": "0xd04ff4a75edd737a73e92b2f2274cb887d96e110",
      "function": "mint(address,uint256)",
      "arguments": [
        "0xa0Ee7A142d267C1f36714E4a8F75612F20a79720",
        "100000000000000000000"
      ],
      "transaction": {
        "from": "0xa0ee7a142d267c1f36714e4a8f75612f20a79720",
        "to": "0xd04ff4a75edd737a73e92b2f2274cb887d96e110",
        "gas": "0x18a33",
        "value": "0x0",
        "input": "0x40c10f19000000000000000000000000a0ee7a142d267c1f36714e4a8f75612f20a797200000000000000000000000000000000000000000000000056bc75e2d63100000",
        "nonce": "0x11",
        "chainId": "0x1"
      },
      "additionalContracts": [],
      "isFixedGasLimit": false
    },
    {
      "hash": "0xa1091728c7fa828dda79b2329b06dcc1be17442898d0623379f68c45c2620abb",
      "transactionType": "CREATE",
      "contractName": null,
      "contractAddress": "0x6379ebd504941f50d5bfde9348b37593bd29c835",
      "function": null,
      "arguments": null,
      "transaction": {
        "from": "0xa0ee7a142d267c1f36714e4a8f75612f20a79720",
        "gas": "0x13f7d",
        "value": "0x0",
        "input": "0x3d602d80600a3d3981f3363d3d373d3d3d363d7307e06c8fab4a6bf1e242f3d786bc5b19785bb9215af43d82803e903d91602b57fd5bf3",
        "nonce": "0x12",
        "chainId": "0x1"
      },
      "additionalContracts": [],
      "isFixedGasLimit": false
    },
    {
      "hash": "0x1b876b067a9374ba13ac94fcf0e74664bf3b17cf6e65d97acd28b942ff631627",
      "transactionType": "CALL",
      "contractName": null,
      "contractAddress": "0x6379ebd504941f50d5bfde9348b37593bd29c835",
      "function": "initialize(address,string,string,uint8)",
      "arguments": [
        "0xa0Ee7A142d267C1f36714E4a8F75612F20a79720",
        "Token5",
        "T5",
        "18"
      ],
      "transaction": {
        "from": "0xa0ee7a142d267c1f36714e4a8f75612f20a79720",
        "to": "0x6379ebd504941f50d5bfde9348b37593bd29c835",
        "gas": "0x32c6c",
        "value": "0x0",
        "input": "0xf6d2ee86000000000000000000000000a0ee7a142d267c1f36714e4a8f75612f20a79720000000000000000000000000000000000000000000000000000000000000008000000000000000000000000000000000000000000000000000000000000000c000000000000000000000000000000000000000000000000000000000000000120000000000000000000000000000000000000000000000000000000000000006546f6b656e35000000000000000000000000000000000000000000000000000000000000000000000000000000000000000000000000000000000000000000025435000000000000000000000000000000000000000000000000000000000000",
        "nonce": "0x13",
        "chainId": "0x1"
      },
      "additionalContracts": [],
      "isFixedGasLimit": false
    },
    {
      "hash": "0x92445ea40de353700a2549410e2c9d1568881219388ccdf2669dee1452c6cd1d",
      "transactionType": "CALL",
      "contractName": null,
      "contractAddress": "0x6379ebd504941f50d5bfde9348b37593bd29c835",
      "function": "mint(address,uint256)",
      "arguments": [
        "0xa0Ee7A142d267C1f36714E4a8F75612F20a79720",
        "100000000000000000000"
      ],
      "transaction": {
        "from": "0xa0ee7a142d267c1f36714e4a8f75612f20a79720",
        "to": "0x6379ebd504941f50d5bfde9348b37593bd29c835",
        "gas": "0x18a33",
        "value": "0x0",
        "input": "0x40c10f19000000000000000000000000a0ee7a142d267c1f36714e4a8f75612f20a797200000000000000000000000000000000000000000000000056bc75e2d63100000",
        "nonce": "0x14",
        "chainId": "0x1"
      },
      "additionalContracts": [],
      "isFixedGasLimit": false
    }
  ],
  "receipts": [
    {
      "status": "0x1",
      "cumulativeGasUsed": "0x26032b",
      "logs": [
        {
          "address": "0x700b6a60ce7eaaea56f065753d8dcb9653dbad35",
          "topics": [
            "0xc7f505b2f371ae2175ee4913f4499e1f2633a7b5936321eed1cdaeb6115181d2"
          ],
          "data": "0x000000000000000000000000000000000000000000000000ffffffffffffffff",
          "blockHash": "0x5ac24231982cd8b1c121c7c970b507d1d56eabea6ffdfe1e642a702028719980",
          "blockNumber": "0x1",
          "blockTimestamp": "0x68fa5ef3",
          "transactionHash": "0x9a836dbb20564f2ff8ec19ce0c648a0b850db527dc79053a4d0c5309a898daa1",
          "transactionIndex": "0x0",
          "logIndex": "0x0",
          "removed": false
        }
      ],
      "logsBloom": "0x00000000000000000000000000000020000000000000000000000000000000000000000000000000000000000000000000000000000000000000000000000000000000000000000000000000000000000000000000000000000000000000000000000000000000000000000000000000000020000000000000000000000000000000000000000000000800000000000000000000000080000000000000000000000000000000000000000000000000000000000000000000000000000000000000000000000000000000000000000000000000000004000000000000000000000001000000000000000000000000000000000000000000000000000000000000",
      "type": "0x2",
      "transactionHash": "0x9a836dbb20564f2ff8ec19ce0c648a0b850db527dc79053a4d0c5309a898daa1",
      "transactionIndex": "0x0",
      "blockHash": "0x5ac24231982cd8b1c121c7c970b507d1d56eabea6ffdfe1e642a702028719980",
      "blockNumber": "0x1",
      "gasUsed": "0x26032b",
      "effectiveGasPrice": "0x3b9aca01",
      "blobGasPrice": "0x1",
      "from": "0xa0ee7a142d267c1f36714e4a8f75612f20a79720",
      "to": null,
      "contractAddress": "0x700b6a60ce7eaaea56f065753d8dcb9653dbad35"
    },
    {
      "status": "0x1",
      "cumulativeGasUsed": "0x13280a",
      "logs": [
        {
          "address": "0xa15bb66138824a1c7167f5e85b957d04dd34e468",
          "topics": [
            "0xbc7cd75a20ee27fd9adebab32041f755214dbc6bffa90cc0225b39da2e5c2d3b",
            "0x000000000000000000000000700b6a60ce7eaaea56f065753d8dcb9653dbad35"
          ],
          "data": "0x",
          "blockHash": "0x5fa7492fa56440d2470b765e512723125b3de777e9023afda92c1b62b9842656",
          "blockNumber": "0x2",
          "blockTimestamp": "0x68fa5ef3",
          "transactionHash": "0x31ca332e0a9c6a665d02c921bfdab21a29831ee6ff3ee8d5498a7164a436da9d",
          "transactionIndex": "0x0",
          "logIndex": "0x0",
          "removed": false
        },
        {
          "address": "0xa15bb66138824a1c7167f5e85b957d04dd34e468",
          "topics": [
            "0x8be0079c531659141344cd1fd0a4f28419497f9722a3daafe3b4186f6b6457e0",
            "0x0000000000000000000000000000000000000000000000000000000000000000",
            "0x000000000000000000000000a0ee7a142d267c1f36714e4a8f75612f20a79720"
          ],
          "data": "0x",
          "blockHash": "0x5fa7492fa56440d2470b765e512723125b3de777e9023afda92c1b62b9842656",
          "blockNumber": "0x2",
          "blockTimestamp": "0x68fa5ef3",
          "transactionHash": "0x31ca332e0a9c6a665d02c921bfdab21a29831ee6ff3ee8d5498a7164a436da9d",
          "transactionIndex": "0x0",
          "logIndex": "0x1",
          "removed": false
        },
        {
          "address": "0x07e06c8fab4a6bf1e242f3d786bc5b19785bb921",
          "topics": [
            "0xc7f505b2f371ae2175ee4913f4499e1f2633a7b5936321eed1cdaeb6115181d2"
          ],
          "data": "0x000000000000000000000000000000000000000000000000ffffffffffffffff",
          "blockHash": "0x5fa7492fa56440d2470b765e512723125b3de777e9023afda92c1b62b9842656",
          "blockNumber": "0x2",
          "blockTimestamp": "0x68fa5ef3",
          "transactionHash": "0x31ca332e0a9c6a665d02c921bfdab21a29831ee6ff3ee8d5498a7164a436da9d",
          "transactionIndex": "0x0",
          "logIndex": "0x2",
          "removed": false
        },
        {
          "address": "0xa15bb66138824a1c7167f5e85b957d04dd34e468",
          "topics": [
            "0xc7f505b2f371ae2175ee4913f4499e1f2633a7b5936321eed1cdaeb6115181d2"
          ],
          "data": "0x0000000000000000000000000000000000000000000000000000000000000001",
          "blockHash": "0x5fa7492fa56440d2470b765e512723125b3de777e9023afda92c1b62b9842656",
          "blockNumber": "0x2",
          "blockTimestamp": "0x68fa5ef3",
          "transactionHash": "0x31ca332e0a9c6a665d02c921bfdab21a29831ee6ff3ee8d5498a7164a436da9d",
          "transactionIndex": "0x0",
          "logIndex": "0x3",
          "removed": false
        }
      ],
      "logsBloom": "0x00000000000000000000040000000000400000000000000000800000000000000000000000000000000000000000000000000000000000000000000000004000000000000000000000000020000002000001000000000000000008000000000000000000020000000001000000000800000000000000000000000000000000400000000000000000000800000000000000000000000080000000000000000000000000000000008000000010000000000000000000000000000000000000000000000020000000004000000000000000000000000004000000004000000020000000000000800080000000002000000000000000000000000000000000000000",
      "type": "0x2",
      "transactionHash": "0x31ca332e0a9c6a665d02c921bfdab21a29831ee6ff3ee8d5498a7164a436da9d",
      "transactionIndex": "0x0",
      "blockHash": "0x5fa7492fa56440d2470b765e512723125b3de777e9023afda92c1b62b9842656",
      "blockNumber": "0x2",
      "gasUsed": "0x13280a",
      "effectiveGasPrice": "0x356435d2",
      "blobGasPrice": "0x1",
      "from": "0xa0ee7a142d267c1f36714e4a8f75612f20a79720",
      "to": null,
      "contractAddress": "0xa15bb66138824a1c7167f5e85b957d04dd34e468"
    },
    {
      "status": "0x1",
      "cumulativeGasUsed": "0xf5c3",
      "logs": [],
      "logsBloom": "0x00000000000000000000000000000000000000000000000000000000000000000000000000000000000000000000000000000000000000000000000000000000000000000000000000000000000000000000000000000000000000000000000000000000000000000000000000000000000000000000000000000000000000000000000000000000000000000000000000000000000000000000000000000000000000000000000000000000000000000000000000000000000000000000000000000000000000000000000000000000000000000000000000000000000000000000000000000000000000000000000000000000000000000000000000000000",
      "type": "0x2",
      "transactionHash": "0xa402ae53c0673edc18796244b1d673352eb896e2ea3d00f0ae24f7ed2fb45d2e",
      "transactionIndex": "0x0",
      "blockHash": "0xd43e2978556b9df613e403fdb5dd18ed279310af9411ff2f3e27703f364cc527",
      "blockNumber": "0x3",
      "gasUsed": "0xf5c3",
      "effectiveGasPrice": "0x2f46ae1b",
      "blobGasPrice": "0x1",
      "from": "0xa0ee7a142d267c1f36714e4a8f75612f20a79720",
      "to": null,
      "contractAddress": "0xb19b36b1456e65e3a6d514d3f715f204bd59f431"
    },
    {
      "status": "0x1",
      "cumulativeGasUsed": "0x22b81",
      "logs": [
        {
          "address": "0xb19b36b1456e65e3a6d514d3f715f204bd59f431",
          "topics": [
            "0x8be0079c531659141344cd1fd0a4f28419497f9722a3daafe3b4186f6b6457e0",
            "0x0000000000000000000000000000000000000000000000000000000000000000",
            "0x000000000000000000000000a0ee7a142d267c1f36714e4a8f75612f20a79720"
          ],
          "data": "0x",
          "blockHash": "0x0e7976d77ea0a523430be0a300b204bd5e3ad9bd5003f7093b28f80409af290d",
          "blockNumber": "0x4",
          "blockTimestamp": "0x68fa5ef4",
          "transactionHash": "0xb76d9d8d218c7bfa23b9149d4b203f9b0131c655f8e78484ec380573154fb0e1",
          "transactionIndex": "0x0",
          "logIndex": "0x0",
          "removed": false
        },
        {
          "address": "0xb19b36b1456e65e3a6d514d3f715f204bd59f431",
          "topics": [
            "0xc7f505b2f371ae2175ee4913f4499e1f2633a7b5936321eed1cdaeb6115181d2"
          ],
          "data": "0x0000000000000000000000000000000000000000000000000000000000000001",
          "blockHash": "0x0e7976d77ea0a523430be0a300b204bd5e3ad9bd5003f7093b28f80409af290d",
          "blockNumber": "0x4",
          "blockTimestamp": "0x68fa5ef4",
          "transactionHash": "0xb76d9d8d218c7bfa23b9149d4b203f9b0131c655f8e78484ec380573154fb0e1",
          "transactionIndex": "0x0",
          "logIndex": "0x1",
          "removed": false
        }
      ],
      "logsBloom": "0x00000000000000000000040000000000000000400000000000800000000000000000000000000000000000000000000000000000000000000000000000000000000000000000000000000000000000000001000000000000000008000800000000000000020000000000000000000800000000000000000000000000000000400000000800000000000800000000000000000000000080000000000000000000000000000000000000000000000000000000000000000000000000000000000000000000000000000000000000000000000000000004000000004000000020000000000000000000000000000000000000000000000000000000000000000000",
      "type": "0x2",
      "transactionHash": "0xb76d9d8d218c7bfa23b9149d4b203f9b0131c655f8e78484ec380573154fb0e1",
      "transactionIndex": "0x0",
      "blockHash": "0x0e7976d77ea0a523430be0a300b204bd5e3ad9bd5003f7093b28f80409af290d",
      "blockNumber": "0x4",
      "gasUsed": "0x22b81",
      "effectiveGasPrice": "0x296430c0",
      "blobGasPrice": "0x1",
      "from": "0xa0ee7a142d267c1f36714e4a8f75612f20a79720",
      "to": "0xb19b36b1456e65e3a6d514d3f715f204bd59f431",
      "contractAddress": null
    },
    {
      "status": "0x1",
      "cumulativeGasUsed": "0x11d65",
      "logs": [
        {
          "address": "0xb19b36b1456e65e3a6d514d3f715f204bd59f431",
          "topics": [
            "0xddf252ad1be2c89b69c2b068fc378daa952ba7f163c4a11628f55a4df523b3ef",
            "0x0000000000000000000000000000000000000000000000000000000000000000",
            "0x000000000000000000000000a0ee7a142d267c1f36714e4a8f75612f20a79720"
          ],
          "data": "0x0000000000000000000000000000000000000000000000056bc75e2d63100000",
          "blockHash": "0xe6bdd3f575f9863896b4ce1e463e780077843b762c0c8f529af2f3fcda2cf9cd",
          "blockNumber": "0x5",
          "blockTimestamp": "0x68fa5ef4",
          "transactionHash": "0xb14f423f95f76487a5caa7b346a92e7eb56ca7776187b6368b2968ead1fe21a5",
          "transactionIndex": "0x0",
          "logIndex": "0x0",
          "removed": false
        }
      ],
      "logsBloom": "0x00000000000000000000040000000000000000400000000000000000000000000000000000000000000000000000000000000000000000000000000000000000000000000000000000000008000000000000000000000000000008000800000000000000020000000000000000000800000000000000000000000010000000000000000800000000000000000000000000000000000000000000000000000000000000000000000000000000000000000000000000000000000000000000000000000002000000000000000000000000000000000000000000004000000020000000000000000000000000000000000000000000000000000000000000000000",
      "type": "0x2",
      "transactionHash": "0xb14f423f95f76487a5caa7b346a92e7eb56ca7776187b6368b2968ead1fe21a5",
      "transactionIndex": "0x0",
      "blockHash": "0xe6bdd3f575f9863896b4ce1e463e780077843b762c0c8f529af2f3fcda2cf9cd",
      "blockNumber": "0x5",
      "gasUsed": "0x11d65",
      "effectiveGasPrice": "0x24443953",
      "blobGasPrice": "0x1",
      "from": "0xa0ee7a142d267c1f36714e4a8f75612f20a79720",
      "to": "0xb19b36b1456e65e3a6d514d3f715f204bd59f431",
      "contractAddress": null
    },
    {
      "status": "0x1",
      "cumulativeGasUsed": "0xca76",
      "logs": [],
      "logsBloom": "0x00000000000000000000000000000000000000000000000000000000000000000000000000000000000000000000000000000000000000000000000000000000000000000000000000000000000000000000000000000000000000000000000000000000000000000000000000000000000000000000000000000000000000000000000000000000000000000000000000000000000000000000000000000000000000000000000000000000000000000000000000000000000000000000000000000000000000000000000000000000000000000000000000000000000000000000000000000000000000000000000000000000000000000000000000000000",
      "type": "0x2",
      "transactionHash": "0xf8e34b5b8fa991167a55adecdee40b20c7bdd10ed44d1473c8cd8836fbfc86bc",
      "transactionIndex": "0x0",
      "blockHash": "0x932596c60e2f091100d7975644907e80e684d29356b92eab0bfed239ccdfa399",
      "blockNumber": "0x6",
      "gasUsed": "0xca76",
      "effectiveGasPrice": "0x1fc1593c",
      "blobGasPrice": "0x1",
      "from": "0xa0ee7a142d267c1f36714e4a8f75612f20a79720",
      "to": "0xa15bb66138824a1c7167f5e85b957d04dd34e468",
      "contractAddress": null
    },
    {
      "status": "0x1",
      "cumulativeGasUsed": "0xd006",
      "logs": [
        {
          "address": "0xa15bb66138824a1c7167f5e85b957d04dd34e468",
          "topics": [
            "0xe184914670d9e097e90729e2a9159866b30b1203952f0586bedca1d6fcf130a8"
          ],
          "data": "0x000000000000000000000000b19b36b1456e65e3a6d514d3f715f204bd59f4310000000000000000000000000000000000000000000000000000000068fa5ef4",
          "blockHash": "0xae8c30216af7707ad131bc76ed96c7c296af6dc7f68fcc5d132aacf2bc295f1f",
          "blockNumber": "0x7",
          "blockTimestamp": "0x68fa5ef4",
          "transactionHash": "0x628d780c1bda7fb4c8d3df242afe47efe6fc9f9c9edb531f1b7920c83ed6f5bf",
          "transactionIndex": "0x0",
          "logIndex": "0x0",
          "removed": false
        }
      ],
      "logsBloom": "0x00000000000000000000000000000000000000000000000000000000000000000000002000000000000000000000000000000000000000000000000000014000000000000000000000000020000000000000000000000000000000000000000000000000000000000000000000000000000000000000000000000000000000000000000000000000000000000000000000000000000000000000000000000000000000000000008000000000000000000000000000000000000000000000000008000000000000000000000000000000000000000000000000000000000000000000000000000000000000000000000000000000000000000000000000000000",
      "type": "0x2",
      "transactionHash": "0x628d780c1bda7fb4c8d3df242afe47efe6fc9f9c9edb531f1b7920c83ed6f5bf",
      "transactionIndex": "0x0",
      "blockHash": "0xae8c30216af7707ad131bc76ed96c7c296af6dc7f68fcc5d132aacf2bc295f1f",
      "blockNumber": "0x7",
      "gasUsed": "0xd006",
      "effectiveGasPrice": "0x1bccb0f3",
      "blobGasPrice": "0x1",
      "from": "0xa0ee7a142d267c1f36714e4a8f75612f20a79720",
      "to": "0xa15bb66138824a1c7167f5e85b957d04dd34e468",
      "contractAddress": null
    },
    {
      "status": "0x1",
      "cumulativeGasUsed": "0xbe27",
      "logs": [
        {
          "address": "0xb19b36b1456e65e3a6d514d3f715f204bd59f431",
          "topics": [
            "0x8c5be1e5ebec7d5bd14f71427d1e84f3dd0314c0f7b2291e5b200ac8c7c3b925",
            "0x000000000000000000000000a0ee7a142d267c1f36714e4a8f75612f20a79720",
            "0x000000000000000000000000a15bb66138824a1c7167f5e85b957d04dd34e468"
          ],
          "data": "0x0000000000000000000000000000000000000000000000008ac7230489e80000",
          "blockHash": "0x2e17f6bfaccc5c4bc95d34d31230c8ba33f5249c129ff5a4841faf17f69a016d",
          "blockNumber": "0x8",
          "blockTimestamp": "0x68fa5ef4",
          "transactionHash": "0x79148409f46563b72a09bed417f34de935e03221a506823edecc8a063c55d1b2",
          "transactionIndex": "0x0",
          "logIndex": "0x0",
          "removed": false
        }
      ],
      "logsBloom": "0x00000000000000000000040000000000000000400000000000000000000000000000000000000000000000000000000000000000000000000000000000200000000000000000000000000000000000000000000000000000000008000800000000000000000000000000000000000000000000000000000000000000000000000000000800000000000000000000000000000000000000000000000000000000020040000000000000000100000000000000000000000000000000000000000000000000000000000200000000000000000000000000000000004000000000000010000000000000000000000000000000000000000000000000000000000000",
      "type": "0x2",
      "transactionHash": "0x79148409f46563b72a09bed417f34de935e03221a506823edecc8a063c55d1b2",
      "transactionIndex": "0x0",
      "blockHash": "0x2e17f6bfaccc5c4bc95d34d31230c8ba33f5249c129ff5a4841faf17f69a016d",
      "blockNumber": "0x8",
      "gasUsed": "0xbe27",
      "effectiveGasPrice": "0x1856435a",
      "blobGasPrice": "0x1",
      "from": "0xa0ee7a142d267c1f36714e4a8f75612f20a79720",
      "to": "0xb19b36b1456e65e3a6d514d3f715f204bd59f431",
      "contractAddress": null
    },
    {
      "status": "0x1",
      "cumulativeGasUsed": "0x6395a",
      "logs": [
        {
          "address": "0xe88c975ff7dc40e80a84b6d0a81f23317322f325",
          "topics": [
            "0x8be0079c531659141344cd1fd0a4f28419497f9722a3daafe3b4186f6b6457e0",
            "0x0000000000000000000000000000000000000000000000000000000000000000",
            "0x000000000000000000000000a15bb66138824a1c7167f5e85b957d04dd34e468"
          ],
          "data": "0x",
          "blockHash": "0xb2ba347e3a372c174506bdbf273425b113eb9dd0e592503b08da5b1af8df5bf8",
          "blockNumber": "0x9",
          "blockTimestamp": "0x68fa5ef4",
          "transactionHash": "0x5ad24a12a5250b45b5d999c99bd2e1bff24e562013e3e6780c80daa68abd445b",
          "transactionIndex": "0x0",
          "logIndex": "0x0",
          "removed": false
        },
        {
          "address": "0xe88c975ff7dc40e80a84b6d0a81f23317322f325",
          "topics": [
            "0xc7f505b2f371ae2175ee4913f4499e1f2633a7b5936321eed1cdaeb6115181d2"
          ],
          "data": "0x0000000000000000000000000000000000000000000000000000000000000001",
          "blockHash": "0xb2ba347e3a372c174506bdbf273425b113eb9dd0e592503b08da5b1af8df5bf8",
          "blockNumber": "0x9",
          "blockTimestamp": "0x68fa5ef4",
          "transactionHash": "0x5ad24a12a5250b45b5d999c99bd2e1bff24e562013e3e6780c80daa68abd445b",
          "transactionIndex": "0x0",
          "logIndex": "0x1",
          "removed": false
        },
        {
          "address": "0xa15bb66138824a1c7167f5e85b957d04dd34e468",
          "topics": [
            "0x4675ee6a9586f628182ae46aefda879e2c1b7d316484a01e18c65cc1729f4aaa"
          ],
          "data": "0x000000000000000000000000b19b36b1456e65e3a6d514d3f715f204bd59f431000000000000000000000000e88c975ff7dc40e80a84b6d0a81f23317322f3250000000000000000000000000000000000000000000000000000000068fa5ef4",
          "blockHash": "0xb2ba347e3a372c174506bdbf273425b113eb9dd0e592503b08da5b1af8df5bf8",
          "blockNumber": "0x9",
          "blockTimestamp": "0x68fa5ef4",
          "transactionHash": "0x5ad24a12a5250b45b5d999c99bd2e1bff24e562013e3e6780c80daa68abd445b",
          "transactionIndex": "0x0",
          "logIndex": "0x2",
          "removed": false
        },
        {
          "address": "0xb19b36b1456e65e3a6d514d3f715f204bd59f431",
          "topics": [
            "0xddf252ad1be2c89b69c2b068fc378daa952ba7f163c4a11628f55a4df523b3ef",
            "0x000000000000000000000000a0ee7a142d267c1f36714e4a8f75612f20a79720",
            "0x000000000000000000000000a15bb66138824a1c7167f5e85b957d04dd34e468"
          ],
          "data": "0x0000000000000000000000000000000000000000000000008ac7230489e80000",
          "blockHash": "0xb2ba347e3a372c174506bdbf273425b113eb9dd0e592503b08da5b1af8df5bf8",
          "blockNumber": "0x9",
          "blockTimestamp": "0x68fa5ef4",
          "transactionHash": "0x5ad24a12a5250b45b5d999c99bd2e1bff24e562013e3e6780c80daa68abd445b",
          "transactionIndex": "0x0",
          "logIndex": "0x3",
          "removed": false
        },
        {
          "address": "0xb19b36b1456e65e3a6d514d3f715f204bd59f431",
          "topics": [
            "0xddf252ad1be2c89b69c2b068fc378daa952ba7f163c4a11628f55a4df523b3ef",
            "0x000000000000000000000000a15bb66138824a1c7167f5e85b957d04dd34e468",
            "0x000000000000000000000000f39fd6e51aad88f6f4ce6ab8827279cfffb92266"
          ],
          "data": "0x0000000000000000000000000000000000000000000000000058d15e17628000",
          "blockHash": "0xb2ba347e3a372c174506bdbf273425b113eb9dd0e592503b08da5b1af8df5bf8",
          "blockNumber": "0x9",
          "blockTimestamp": "0x68fa5ef4",
          "transactionHash": "0x5ad24a12a5250b45b5d999c99bd2e1bff24e562013e3e6780c80daa68abd445b",
          "transactionIndex": "0x0",
          "logIndex": "0x4",
          "removed": false
        },
        {
          "address": "0xb19b36b1456e65e3a6d514d3f715f204bd59f431",
          "topics": [
            "0xddf252ad1be2c89b69c2b068fc378daa952ba7f163c4a11628f55a4df523b3ef",
            "0x000000000000000000000000a15bb66138824a1c7167f5e85b957d04dd34e468",
            "0x00000000000000000000000070997970c51812dc3a010c7d01b50e0d17dc79c8"
          ],
          "data": "0x0000000000000000000000000000000000000000000000000058d15e17628000",
          "blockHash": "0xb2ba347e3a372c174506bdbf273425b113eb9dd0e592503b08da5b1af8df5bf8",
          "blockNumber": "0x9",
          "blockTimestamp": "0x68fa5ef4",
          "transactionHash": "0x5ad24a12a5250b45b5d999c99bd2e1bff24e562013e3e6780c80daa68abd445b",
          "transactionIndex": "0x0",
          "logIndex": "0x5",
          "removed": false
        },
        {
          "address": "0xa15bb66138824a1c7167f5e85b957d04dd34e468",
          "topics": [
            "0x6e1cd4934890adc1ed32d2a359852b71b06ceb4a37b5a1c603815d68632aea8e"
          ],
          "data": "0x000000000000000000000000f39fd6e51aad88f6f4ce6ab8827279cfffb92266000000000000000000000000b19b36b1456e65e3a6d514d3f715f204bd59f4310000000000000000000000000000000000000000000000000058d15e176280000000000000000000000000000000000000000000000000000000000068fa5ef4",
          "blockHash": "0xb2ba347e3a372c174506bdbf273425b113eb9dd0e592503b08da5b1af8df5bf8",
          "blockNumber": "0x9",
          "blockTimestamp": "0x68fa5ef4",
          "transactionHash": "0x5ad24a12a5250b45b5d999c99bd2e1bff24e562013e3e6780c80daa68abd445b",
          "transactionIndex": "0x0",
          "logIndex": "0x6",
          "removed": false
        },
        {
          "address": "0xa15bb66138824a1c7167f5e85b957d04dd34e468",
          "topics": [
            "0xb36e7e0fed1d9dba43ffe2a0622f8e07cbc2aa264af47a5a5fde9edd5d94770e"
          ],
          "data": "0x00000000000000000000000070997970c51812dc3a010c7d01b50e0d17dc79c8000000000000000000000000b19b36b1456e65e3a6d514d3f715f204bd59f4310000000000000000000000000000000000000000000000000058d15e176280000000000000000000000000000000000000000000000000000000000068fa5ef4",
          "blockHash": "0xb2ba347e3a372c174506bdbf273425b113eb9dd0e592503b08da5b1af8df5bf8",
          "blockNumber": "0x9",
          "blockTimestamp": "0x68fa5ef4",
          "transactionHash": "0x5ad24a12a5250b45b5d999c99bd2e1bff24e562013e3e6780c80daa68abd445b",
          "transactionIndex": "0x0",
          "logIndex": "0x7",
          "removed": false
        },
        {
          "address": "0xe88c975ff7dc40e80a84b6d0a81f23317322f325",
          "topics": [
            "0xddf252ad1be2c89b69c2b068fc378daa952ba7f163c4a11628f55a4df523b3ef",
            "0x0000000000000000000000000000000000000000000000000000000000000000",
            "0x000000000000000000000000a0ee7a142d267c1f36714e4a8f75612f20a79720"
          ],
          "data": "0x0000000000000000000000000000000000000000000000008a1580485b230000",
          "blockHash": "0xb2ba347e3a372c174506bdbf273425b113eb9dd0e592503b08da5b1af8df5bf8",
          "blockNumber": "0x9",
          "blockTimestamp": "0x68fa5ef4",
          "transactionHash": "0x5ad24a12a5250b45b5d999c99bd2e1bff24e562013e3e6780c80daa68abd445b",
          "transactionIndex": "0x0",
          "logIndex": "0x8",
          "removed": false
        },
        {
          "address": "0xa15bb66138824a1c7167f5e85b957d04dd34e468",
          "topics": [
            "0x6f3daae623ae67ee0d7c85bb96e922d0bdc9fbcfbc6814a44d6abb2066ff0ff4"
          ],
          "data": "0x000000000000000000000000a0ee7a142d267c1f36714e4a8f75612f20a79720000000000000000000000000b19b36b1456e65e3a6d514d3f715f204bd59f4310000000000000000000000000000000000000000000000008ac7230489e800000000000000000000000000000000000000000000000000000000000068fa5ef4",
          "blockHash": "0xb2ba347e3a372c174506bdbf273425b113eb9dd0e592503b08da5b1af8df5bf8",
          "blockNumber": "0x9",
          "blockTimestamp": "0x68fa5ef4",
          "transactionHash": "0x5ad24a12a5250b45b5d999c99bd2e1bff24e562013e3e6780c80daa68abd445b",
          "transactionIndex": "0x0",
          "logIndex": "0x9",
          "removed": false
        }
      ],
      "logsBloom": "0x00000000000000000002240000000000000000400000001000800000000000000000000000000000000000000000800000000000000000000000200000004000000000000000000000000028000000000001000000000000000009000800000000000800020000000000000100000800000800000000004000000010000200400000000800000000000800000000000000000000000080000000000000000000000040000008008000000100008000000000000000000000000000000000000000000002010000200200000000000000000010002004000000004000000020000000000000000000000000000080000001000000020200000000000000000000",
      "type": "0x2",
      "transactionHash": "0x5ad24a12a5250b45b5d999c99bd2e1bff24e562013e3e6780c80daa68abd445b",
      "transactionIndex": "0x0",
      "blockHash": "0xb2ba347e3a372c174506bdbf273425b113eb9dd0e592503b08da5b1af8df5bf8",
      "blockNumber": "0x9",
      "gasUsed": "0x6395a",
      "effectiveGasPrice": "0x154e01f0",
      "blobGasPrice": "0x1",
      "from": "0xa0ee7a142d267c1f36714e4a8f75612f20a79720",
      "to": "0xa15bb66138824a1c7167f5e85b957d04dd34e468",
      "contractAddress": null
    },
    {
      "status": "0x1",
      "cumulativeGasUsed": "0xf5c3",
      "logs": [],
      "logsBloom": "0x00000000000000000000000000000000000000000000000000000000000000000000000000000000000000000000000000000000000000000000000000000000000000000000000000000000000000000000000000000000000000000000000000000000000000000000000000000000000000000000000000000000000000000000000000000000000000000000000000000000000000000000000000000000000000000000000000000000000000000000000000000000000000000000000000000000000000000000000000000000000000000000000000000000000000000000000000000000000000000000000000000000000000000000000000000000",
      "type": "0x2",
      "transactionHash": "0x8e10c17becdd509a604bb97da90a738aaedd282801c82d7e4ee8ade07f3a8f04",
      "transactionIndex": "0x0",
      "blockHash": "0xa1bcb7f87dc87fffc020bfcaa63a0fb70549b21a510de1dd3c366348981ae170",
      "blockNumber": "0xa",
      "gasUsed": "0xf5c3",
      "effectiveGasPrice": "0x12b6cbae",
      "blobGasPrice": "0x1",
      "from": "0xa0ee7a142d267c1f36714e4a8f75612f20a79720",
      "to": null,
      "contractAddress": "0x12975173b87f7595ee45dffb2ab812ece596bf84"
    },
    {
      "status": "0x1",
      "cumulativeGasUsed": "0x22b81",
      "logs": [
        {
          "address": "0x12975173b87f7595ee45dffb2ab812ece596bf84",
          "topics": [
            "0x8be0079c531659141344cd1fd0a4f28419497f9722a3daafe3b4186f6b6457e0",
            "0x0000000000000000000000000000000000000000000000000000000000000000",
            "0x000000000000000000000000a0ee7a142d267c1f36714e4a8f75612f20a79720"
          ],
          "data": "0x",
          "blockHash": "0xf551a8a4c4c560b548702b4e578ca681bc193450480ce1cf48da81d4e1d787fd",
          "blockNumber": "0xb",
          "blockTimestamp": "0x68fa5ef4",
          "transactionHash": "0x0529636eaec03e766cf9f849584c0bcb797d30c9113fa7ba7568ec070135410c",
          "transactionIndex": "0x0",
          "logIndex": "0x0",
          "removed": false
        },
        {
          "address": "0x12975173b87f7595ee45dffb2ab812ece596bf84",
          "topics": [
            "0xc7f505b2f371ae2175ee4913f4499e1f2633a7b5936321eed1cdaeb6115181d2"
          ],
          "data": "0x0000000000000000000000000000000000000000000000000000000000000001",
          "blockHash": "0xf551a8a4c4c560b548702b4e578ca681bc193450480ce1cf48da81d4e1d787fd",
          "blockNumber": "0xb",
          "blockTimestamp": "0x68fa5ef4",
          "transactionHash": "0x0529636eaec03e766cf9f849584c0bcb797d30c9113fa7ba7568ec070135410c",
          "transactionIndex": "0x0",
          "logIndex": "0x1",
          "removed": false
        }
      ],
      "logsBloom": "0x00000000000000000080040000000000000000000000000000800000000000000000000000000000000000000000000000000000000000000000000000000000000000000000000000000000000000000001000000000000000008000000000000000000020000000000000000000800000000000000000000000000000000400000000000000000200800000000000000000000000080000000000000000000000000000000000000000000000000000000000000000000000200000000000000000000000000000000000000000000000000000004000000004000000020000000000000000000000000000000000000000000000000000000000000000000",
      "type": "0x2",
      "transactionHash": "0x0529636eaec03e766cf9f849584c0bcb797d30c9113fa7ba7568ec070135410c",
      "transactionIndex": "0x0",
      "blockHash": "0xf551a8a4c4c560b548702b4e578ca681bc193450480ce1cf48da81d4e1d787fd",
      "blockNumber": "0xb",
      "gasUsed": "0x22b81",
      "effectiveGasPrice": "0x1062753d",
      "blobGasPrice": "0x1",
      "from": "0xa0ee7a142d267c1f36714e4a8f75612f20a79720",
      "to": "0x12975173b87f7595ee45dffb2ab812ece596bf84",
      "contractAddress": null
    },
    {
      "status": "0x1",
      "cumulativeGasUsed": "0x11d65",
      "logs": [
        {
          "address": "0x12975173b87f7595ee45dffb2ab812ece596bf84",
          "topics": [
            "0xddf252ad1be2c89b69c2b068fc378daa952ba7f163c4a11628f55a4df523b3ef",
            "0x0000000000000000000000000000000000000000000000000000000000000000",
            "0x000000000000000000000000a0ee7a142d267c1f36714e4a8f75612f20a79720"
          ],
          "data": "0x0000000000000000000000000000000000000000000000056bc75e2d63100000",
          "blockHash": "0xd116ab1344f7617039389f08067e3f8fccac85aec71188a5b181d6440fccd713",
          "blockNumber": "0xc",
          "blockTimestamp": "0x68fa5ef4",
          "transactionHash": "0xad1640d50b9196cb131ae502c435bf48cc9b85dc11033412af7fddd6e4adcc9a",
          "transactionIndex": "0x0",
          "logIndex": "0x0",
          "removed": false
        }
      ],
      "logsBloom": "0x00000000000000000080040000000000000000000000000000000000000000000000000000000000000000000000000000000000000000000000000000000000000000000000000000000008000000000000000000000000000008000000000000000000020000000000000000000800000000000000000000000010000000000000000000000000200000000000000000000000000000000000000000000000000000000000000000000000000000000000000000000000000200000000000000000002000000000000000000000000000000000000000000004000000020000000000000000000000000000000000000000000000000000000000000000000",
      "type": "0x2",
      "transactionHash": "0xad1640d50b9196cb131ae502c435bf48cc9b85dc11033412af7fddd6e4adcc9a",
      "transactionIndex": "0x0",
      "blockHash": "0xd116ab1344f7617039389f08067e3f8fccac85aec71188a5b181d6440fccd713",
      "blockNumber": "0xc",
      "gasUsed": "0x11d65",
      "effectiveGasPrice": "0xe5b1f19",
      "blobGasPrice": "0x1",
      "from": "0xa0ee7a142d267c1f36714e4a8f75612f20a79720",
      "to": "0x12975173b87f7595ee45dffb2ab812ece596bf84",
      "contractAddress": null
    },
    {
      "status": "0x1",
      "cumulativeGasUsed": "0xf5c3",
      "logs": [],
      "logsBloom": "0x00000000000000000000000000000000000000000000000000000000000000000000000000000000000000000000000000000000000000000000000000000000000000000000000000000000000000000000000000000000000000000000000000000000000000000000000000000000000000000000000000000000000000000000000000000000000000000000000000000000000000000000000000000000000000000000000000000000000000000000000000000000000000000000000000000000000000000000000000000000000000000000000000000000000000000000000000000000000000000000000000000000000000000000000000000000",
      "type": "0x2",
      "transactionHash": "0x5aed2cdd8379e7d2a672f4ed489550c2885f90ff96567b1f6d6e3beb70686477",
      "transactionIndex": "0x0",
      "blockHash": "0xc6da8f708e4d5cafe4531b9cdeac80091b95a6a679112f21e1b62da0dccbba81",
      "blockNumber": "0xd",
      "gasUsed": "0xf5c3",
      "effectiveGasPrice": "0xc91f808",
      "blobGasPrice": "0x1",
      "from": "0xa0ee7a142d267c1f36714e4a8f75612f20a79720",
      "to": null,
      "contractAddress": "0x82c6d3ed4cd33d8ec1e51d0b5cc1d822eaa0c3dc"
    },
    {
      "status": "0x1",
      "cumulativeGasUsed": "0x22b81",
      "logs": [
        {
          "address": "0x82c6d3ed4cd33d8ec1e51d0b5cc1d822eaa0c3dc",
          "topics": [
            "0x8be0079c531659141344cd1fd0a4f28419497f9722a3daafe3b4186f6b6457e0",
            "0x0000000000000000000000000000000000000000000000000000000000000000",
            "0x000000000000000000000000a0ee7a142d267c1f36714e4a8f75612f20a79720"
          ],
          "data": "0x",
          "blockHash": "0x263c2281ae0742d546250b29a67907fe31cf3d44fa7c2ced58ed8cf6078301e1",
          "blockNumber": "0xe",
          "blockTimestamp": "0x68fa5ef4",
          "transactionHash": "0xa82b1b7ecd6f7ebba0843ae0f76bb2416aa52f36a32c7991df836eab79cd67db",
          "transactionIndex": "0x0",
          "logIndex": "0x0",
          "removed": false
        },
        {
          "address": "0x82c6d3ed4cd33d8ec1e51d0b5cc1d822eaa0c3dc",
          "topics": [
            "0xc7f505b2f371ae2175ee4913f4499e1f2633a7b5936321eed1cdaeb6115181d2"
          ],
          "data": "0x0000000000000000000000000000000000000000000000000000000000000001",
          "blockHash": "0x263c2281ae0742d546250b29a67907fe31cf3d44fa7c2ced58ed8cf6078301e1",
          "blockNumber": "0xe",
          "blockTimestamp": "0x68fa5ef4",
          "transactionHash": "0xa82b1b7ecd6f7ebba0843ae0f76bb2416aa52f36a32c7991df836eab79cd67db",
          "transactionIndex": "0x0",
          "logIndex": "0x1",
          "removed": false
        }
      ],
      "logsBloom": "0x00000000000000000000040000000000000000000000000000800000000000000000000000000000000000000000000000000000000000000000000000000000000000000000000000000000000000000001000000000000000008000000000000000000020000000000000000000800000000000000000000000000000000400000000000000000000800000000000000000000000080000000000000000000000000000000000000000000000000000000000000000000000000000000000000000000000000000000000000000000000000000004000200004000000020000008000000000000000000000000000000004000000000000000000000000000",
      "type": "0x2",
      "transactionHash": "0xa82b1b7ecd6f7ebba0843ae0f76bb2416aa52f36a32c7991df836eab79cd67db",
      "transactionIndex": "0x0",
      "blockHash": "0x263c2281ae0742d546250b29a67907fe31cf3d44fa7c2ced58ed8cf6078301e1",
      "blockNumber": "0xe",
      "gasUsed": "0x22b81",
      "effectiveGasPrice": "0xb0168f1",
      "blobGasPrice": "0x1",
      "from": "0xa0ee7a142d267c1f36714e4a8f75612f20a79720",
      "to": "0x82c6d3ed4cd33d8ec1e51d0b5cc1d822eaa0c3dc",
      "contractAddress": null
    },
    {
      "status": "0x1",
      "cumulativeGasUsed": "0x11d65",
      "logs": [
        {
          "address": "0x82c6d3ed4cd33d8ec1e51d0b5cc1d822eaa0c3dc",
          "topics": [
            "0xddf252ad1be2c89b69c2b068fc378daa952ba7f163c4a11628f55a4df523b3ef",
            "0x0000000000000000000000000000000000000000000000000000000000000000",
            "0x000000000000000000000000a0ee7a142d267c1f36714e4a8f75612f20a79720"
          ],
          "data": "0x0000000000000000000000000000000000000000000000056bc75e2d63100000",
          "blockHash": "0x5b792320f5dc47f8ae50b1f680f3d223d0f80dcb6731f08af6471a4d9c853ddd",
          "blockNumber": "0xf",
          "blockTimestamp": "0x68fa5ef4",
          "transactionHash": "0x64060870fa884dd06ec05933bc4f6b30fe409adcdc4dd340c3040626a50e1536",
          "transactionIndex": "0x0",
          "logIndex": "0x0",
          "removed": false
        }
      ],
      "logsBloom": "0x00000000000000000000040000000000000000000000000000000000000000000000000000000000000000000000000000000000000000000000000000000000000000000000000000000008000000000000000000000000000008000000000000000000020000000000000000000800000000000000000000000010000000000000000000000000000000000000000000000000000000000000000000000000000000000000000000000000000000000000000000000000000000000000000000000002000000000000000000000000000000000000000200004000000020000008000000000000000000000000000000004000000000000000000000000000",
      "type": "0x2",
      "transactionHash": "0x64060870fa884dd06ec05933bc4f6b30fe409adcdc4dd340c3040626a50e1536",
      "transactionIndex": "0x0",
      "blockHash": "0x5b792320f5dc47f8ae50b1f680f3d223d0f80dcb6731f08af6471a4d9c853ddd",
      "blockNumber": "0xf",
      "gasUsed": "0x11d65",
      "effectiveGasPrice": "0x9a49292",
      "blobGasPrice": "0x1",
      "from": "0xa0ee7a142d267c1f36714e4a8f75612f20a79720",
      "to": "0x82c6d3ed4cd33d8ec1e51d0b5cc1d822eaa0c3dc",
      "contractAddress": null
    },
    {
      "status": "0x1",
      "cumulativeGasUsed": "0x21328",
      "logs": [],
      "logsBloom": "0x00000000000000000000000000000000000000000000000000000000000000000000000000000000000000000000000000000000000000000000000000000000000000000000000000000000000000000000000000000000000000000000000000000000000000000000000000000000000000000000000000000000000000000000000000000000000000000000000000000000000000000000000000000000000000000000000000000000000000000000000000000000000000000000000000000000000000000000000000000000000000000000000000000000000000000000000000000000000000000000000000000000000000000000000000000000",
      "type": "0x2",
      "transactionHash": "0x39b1d67d971e2e381b4fb2838b2f1ddebdc73d0afb9160020c3d164bbb9a4ec1",
      "transactionIndex": "0x1",
      "blockHash": "0x5b792320f5dc47f8ae50b1f680f3d223d0f80dcb6731f08af6471a4d9c853ddd",
      "blockNumber": "0xf",
      "gasUsed": "0xf5c3",
      "effectiveGasPrice": "0x9a49292",
      "blobGasPrice": "0x1",
      "from": "0xa0ee7a142d267c1f36714e4a8f75612f20a79720",
      "to": null,
      "contractAddress": "0xd04ff4a75edd737a73e92b2f2274cb887d96e110"
    },
    {
      "status": "0x1",
      "cumulativeGasUsed": "0x22b81",
      "logs": [
        {
          "address": "0xd04ff4a75edd737a73e92b2f2274cb887d96e110",
          "topics": [
            "0x8be0079c531659141344cd1fd0a4f28419497f9722a3daafe3b4186f6b6457e0",
            "0x0000000000000000000000000000000000000000000000000000000000000000",
            "0x000000000000000000000000a0ee7a142d267c1f36714e4a8f75612f20a79720"
          ],
          "data": "0x",
          "blockHash": "0x78d23872daacd5048855e7307590f29b658e73faa1c2836cddf4ee1652a32c04",
          "blockNumber": "0x10",
          "blockTimestamp": "0x68fa5ef4",
          "transactionHash": "0x295b44f30e412deec5921f2ac0cb2b0e0dcea687335a0124e4368a42ac00d41d",
          "transactionIndex": "0x0",
          "logIndex": "0x0",
          "removed": false
        },
        {
          "address": "0xd04ff4a75edd737a73e92b2f2274cb887d96e110",
          "topics": [
            "0xc7f505b2f371ae2175ee4913f4499e1f2633a7b5936321eed1cdaeb6115181d2"
          ],
          "data": "0x0000000000000000000000000000000000000000000000000000000000000001",
          "blockHash": "0x78d23872daacd5048855e7307590f29b658e73faa1c2836cddf4ee1652a32c04",
          "blockNumber": "0x10",
          "blockTimestamp": "0x68fa5ef4",
          "transactionHash": "0x295b44f30e412deec5921f2ac0cb2b0e0dcea687335a0124e4368a42ac00d41d",
          "transactionIndex": "0x0",
          "logIndex": "0x1",
          "removed": false
        }
      ],
      "logsBloom": "0x00000000000000000000040000000000000000000000000000800000400000000000000000000000000000000000000000000000000000000000000000000000000000000000000000000000040000000001000000000000000008000000000000000000020000000000000000000800000000000000000000000000000000400000400000000000000800000000000000000000000080000000000000000000000000000000000000000000000000000000000000000000000000000000000000000000000000000000000000000000000000000004000000004000000020000000000000000000000000000000000000000000000000000000000000000000",
      "type": "0x2",
      "transactionHash": "0x295b44f30e412deec5921f2ac0cb2b0e0dcea687335a0124e4368a42ac00d41d",
      "transactionIndex": "0x0",
      "blockHash": "0x78d23872daacd5048855e7307590f29b658e73faa1c2836cddf4ee1652a32c04",
      "blockNumber": "0x10",
      "gasUsed": "0x22b81",
      "effectiveGasPrice": "0x872cc57",
      "blobGasPrice": "0x1",
      "from": "0xa0ee7a142d267c1f36714e4a8f75612f20a79720",
      "to": "0xd04ff4a75edd737a73e92b2f2274cb887d96e110",
      "contractAddress": null
    },
    {
      "status": "0x1",
      "cumulativeGasUsed": "0x11d65",
      "logs": [
        {
          "address": "0xd04ff4a75edd737a73e92b2f2274cb887d96e110",
          "topics": [
            "0xddf252ad1be2c89b69c2b068fc378daa952ba7f163c4a11628f55a4df523b3ef",
            "0x0000000000000000000000000000000000000000000000000000000000000000",
            "0x000000000000000000000000a0ee7a142d267c1f36714e4a8f75612f20a79720"
          ],
          "data": "0x0000000000000000000000000000000000000000000000056bc75e2d63100000",
          "blockHash": "0x8c86f85c8d976088b0eeecb2574c8b9ed570db23dd94194f92a0d1eda8e8dd38",
          "blockNumber": "0x11",
          "blockTimestamp": "0x68fa5ef4",
          "transactionHash": "0x0986d25a884a499adf09fae954b8e7c18ac22c1b50a74d8d6b13f4632c43ac28",
          "transactionIndex": "0x0",
          "logIndex": "0x0",
          "removed": false
        }
      ],
      "logsBloom": "0x00000000000000000000040000000000000000000000000000000000400000000000000000000000000000000000000000000000000000000000000000000000000000000000000000000008040000000000000000000000000008000000000000000000020000000000000000000800000000000000000000000010000000000000400000000000000000000000000000000000000000000000000000000000000000000000000000000000000000000000000000000000000000000000000000000002000000000000000000000000000000000000000000004000000020000000000000000000000000000000000000000000000000000000000000000000",
      "type": "0x2",
      "transactionHash": "0x0986d25a884a499adf09fae954b8e7c18ac22c1b50a74d8d6b13f4632c43ac28",
      "transactionIndex": "0x0",
      "blockHash": "0x8c86f85c8d976088b0eeecb2574c8b9ed570db23dd94194f92a0d1eda8e8dd38",
      "blockNumber": "0x11",
      "gasUsed": "0x11d65",
      "effectiveGasPrice": "0x76702f3",
      "blobGasPrice": "0x1",
      "from": "0xa0ee7a142d267c1f36714e4a8f75612f20a79720",
      "to": "0xd04ff4a75edd737a73e92b2f2274cb887d96e110",
      "contractAddress": null
    },
    {
      "status": "0x1",
      "cumulativeGasUsed": "0x21328",
      "logs": [],
      "logsBloom": "0x00000000000000000000000000000000000000000000000000000000000000000000000000000000000000000000000000000000000000000000000000000000000000000000000000000000000000000000000000000000000000000000000000000000000000000000000000000000000000000000000000000000000000000000000000000000000000000000000000000000000000000000000000000000000000000000000000000000000000000000000000000000000000000000000000000000000000000000000000000000000000000000000000000000000000000000000000000000000000000000000000000000000000000000000000000000",
      "type": "0x2",
      "transactionHash": "0xa1091728c7fa828dda79b2329b06dcc1be17442898d0623379f68c45c2620abb",
      "transactionIndex": "0x1",
      "blockHash": "0x8c86f85c8d976088b0eeecb2574c8b9ed570db23dd94194f92a0d1eda8e8dd38",
      "blockNumber": "0x11",
      "gasUsed": "0xf5c3",
      "effectiveGasPrice": "0x76702f3",
      "blobGasPrice": "0x1",
      "from": "0xa0ee7a142d267c1f36714e4a8f75612f20a79720",
      "to": null,
      "contractAddress": "0x6379ebd504941f50d5bfde9348b37593bd29c835"
    },
    {
      "status": "0x1",
      "cumulativeGasUsed": "0x22b81",
      "logs": [
        {
          "address": "0x6379ebd504941f50d5bfde9348b37593bd29c835",
          "topics": [
            "0x8be0079c531659141344cd1fd0a4f28419497f9722a3daafe3b4186f6b6457e0",
            "0x0000000000000000000000000000000000000000000000000000000000000000",
            "0x000000000000000000000000a0ee7a142d267c1f36714e4a8f75612f20a79720"
          ],
          "data": "0x",
          "blockHash": "0xda4206bd7a582ee05ea17721359cb3ffe6f6a9980382c5b68f0fb99a1e3da703",
          "blockNumber": "0x12",
          "blockTimestamp": "0x68fa5ef4",
          "transactionHash": "0x1b876b067a9374ba13ac94fcf0e74664bf3b17cf6e65d97acd28b942ff631627",
          "transactionIndex": "0x0",
          "logIndex": "0x0",
          "removed": false
        },
        {
          "address": "0x6379ebd504941f50d5bfde9348b37593bd29c835",
          "topics": [
            "0xc7f505b2f371ae2175ee4913f4499e1f2633a7b5936321eed1cdaeb6115181d2"
          ],
          "data": "0x0000000000000000000000000000000000000000000000000000000000000001",
          "blockHash": "0xda4206bd7a582ee05ea17721359cb3ffe6f6a9980382c5b68f0fb99a1e3da703",
          "blockNumber": "0x12",
          "blockTimestamp": "0x68fa5ef4",
          "transactionHash": "0x1b876b067a9374ba13ac94fcf0e74664bf3b17cf6e65d97acd28b942ff631627",
          "transactionIndex": "0x0",
          "logIndex": "0x1",
          "removed": false
        }
      ],
      "logsBloom": "0x00000000000000000000040000000000000000000000000000800000800000000000000000000000000000000000000000000000000000000000000000000000000000000000000000000000000000000001000000000000000008000000200000000000020000000000000000000800000000000000000000000000000000400000000000000000000800000000000000000000000080000000000000000000000000000000000000000000000000000000000000000000000000000000000000000000000000000000000000000000000000000004000000004000000020000000000000000000000000000000000000000004000000000000000000000000",
      "type": "0x2",
      "transactionHash": "0x1b876b067a9374ba13ac94fcf0e74664bf3b17cf6e65d97acd28b942ff631627",
      "transactionIndex": "0x0",
      "blockHash": "0xda4206bd7a582ee05ea17721359cb3ffe6f6a9980382c5b68f0fb99a1e3da703",
      "blockNumber": "0x12",
      "gasUsed": "0x22b81",
      "effectiveGasPrice": "0x67c484b",
      "blobGasPrice": "0x1",
      "from": "0xa0ee7a142d267c1f36714e4a8f75612f20a79720",
      "to": "0x6379ebd504941f50d5bfde9348b37593bd29c835",
      "contractAddress": null
    },
    {
      "status": "0x1",
      "cumulativeGasUsed": "0x11d65",
      "logs": [
        {
          "address": "0x6379ebd504941f50d5bfde9348b37593bd29c835",
          "topics": [
            "0xddf252ad1be2c89b69c2b068fc378daa952ba7f163c4a11628f55a4df523b3ef",
            "0x0000000000000000000000000000000000000000000000000000000000000000",
            "0x000000000000000000000000a0ee7a142d267c1f36714e4a8f75612f20a79720"
          ],
          "data": "0x0000000000000000000000000000000000000000000000056bc75e2d63100000",
          "blockHash": "0xfc61c292b8f9776f488996bc13be5a97ac163d239972f59a968bb2093b73bb44",
          "blockNumber": "0x13",
          "blockTimestamp": "0x68fa5ef4",
          "transactionHash": "0x92445ea40de353700a2549410e2c9d1568881219388ccdf2669dee1452c6cd1d",
          "transactionIndex": "0x0",
          "logIndex": "0x0",
          "removed": false
        }
      ],
      "logsBloom": "0x00000000000000000000040000000000000000000000000000000000800000000000000000000000000000000000000000000000000000000000000000000000000000000000000000000008000000000000000000000000000008000000200000000000020000000000000000000800000000000000000000000010000000000000000000000000000000000000000000000000000000000000000000000000000000000000000000000000000000000000000000000000000000000000000000000002000000000000000000000000000000000000000000004000000020000000000000000000000000000000000000000004000000000000000000000000",
      "type": "0x2",
      "transactionHash": "0x92445ea40de353700a2549410e2c9d1568881219388ccdf2669dee1452c6cd1d",
      "transactionIndex": "0x0",
      "blockHash": "0xfc61c292b8f9776f488996bc13be5a97ac163d239972f59a968bb2093b73bb44",
      "blockNumber": "0x13",
      "gasUsed": "0x11d65",
      "effectiveGasPrice": "0x5aeb6f4",
      "blobGasPrice": "0x1",
      "from": "0xa0ee7a142d267c1f36714e4a8f75612f20a79720",
      "to": "0x6379ebd504941f50d5bfde9348b37593bd29c835",
      "contractAddress": null
    }
  ],
  "libraries": [],
  "pending": [],
  "returns": {},
  "timestamp": 1761238772,
  "chain": 1,
  "commit": "2b9c790"
}